:020000040800F2
:100000006014002099010008170F00084D0E000829
:10001000150F0008CB020008951100080000000031
:1000200000000000000000000000000001010008C6
:10003000CD0200080000000045010008D50F0008AF
:10004000B3010008B3010008B3010008B3010008C0
:10005000B3010008B3010008B3010008B3010008B0
:10006000B3010008B3010008B3010008B3010008A0
:10007000B3010008B3010008B3010008B301000890
:10008000B3010008B3010008B3010008B301000880
:10009000B3010008B3010008B3010008B301000870
:1000A000B3010008B3010008B3010008B301000860
:1000B00059100008B3010008B3010008B30100089B
:1000C000B3010008B3010008B3010008B301000840
:1000D000B3010008B3010008B3010008B301000830
:1000E000B3010008B3010008B3010008DFF80CD029
:1000F00000F0CAF800480047D1140008601400203E
:10010000224B19680868B0E8F00F80F30988BFF344
:100110006F8F4FF0000080F311884EF00D0E704786
:100120000000000006480068006880F3088862B696
:1001300061B6BFF34F8FBFF36F8F00DF00BF00BF0B
:1001400008ED00E0EFF30980BFF36F8F0F4B1A68E3
:1001500020E9F00F106008B54FF0500080F31188CF
:10016000BFF34F8FBFF36F8F01F0CCFD4FF0000056
:1001700080F31188BDE8084019680868B0E8F00FFE
:1001800080F30988BFF36F8F704700BF1C00002009
:10019000EFF3058070470000064880470648004797
:1001A000FEE7FEE7FEE7FEE7FEE7FEE7FEE7FEE727
:1001B000FEE7FEE757100008ED000008202A04DBE8
:1001C000203A21FA02F00021704721FA02F3D040D0
:1001D000C2F12002914008431946704740EA0103EA
:1001E0009B0703D009E008C9121F08C0042AFAD2ED
:1001F00003E011F8013B00F8013B521EF9D27047B1
:10020000D2B201E000F8012B491EFBD27047002258
:10021000F6E710B513460A4604461946FFF7F0FF05
:10022000204610BD2DE9F05F0546002092469B4612
:1002300088460646814640241BE0284641464746FC
:100240002246FFF7BBFF53465A46C01A914110D3CE
:1002500011461846224600F029F82D1A67EB0108CE
:100260004F4622460120002100F020F817EB00093C
:100270004E41201EA4F10104DFDC484631462A46E7
:100280004346BDE8F09F0000064C074D06E0E068DD
:1002900040F0010394E8070098471034AC42F6D3CD
:1002A000FFF728FF88220008A8220008202A04DB84
:1002B000203A00FA02F1002070479140C2F1200379
:1002C00020FA03F3194390407047FEE7704772B677
:1002D000FEE700002DE9F84FDFF8B8910024A9F1FE
:1002E000040B23460F2709F1040AABF1040EC9E001
:1002F0000125A5402A40AA427DD1674ED1F804C00D
:10030000ACEB0608B44532D014DCBCF1030F3AD094
:1003100009DCBCF1000F2AD0BCF1010F1CD0BCF1EC
:10032000020F31D11DE0BCF1110F17D0BCF1120F3B
:100330002AD119E0B8F5881F19D006DCB8F5803F3E
:1003400015D0B8F5801F1FD111E0B8F5001F0ED0F1
:10035000B8F5041F18D10AE0CB6815E0CB681B1D67
:1003600012E0CB6808330FE0CB680C330CE08B68ED
:100370002BB1012B4FF0080303D0456104E00423A7
:1003800002E0056100E00023FF2A01D8064601E0F3
:1003900000F104064FEA840501D9A5F12005D6F83D
:1003A000008007FA05FC28EA0C0803FA05F548EA7C
:1003B0000508C6F800804D68ED0062D5374DAE697E
:1003C00046F00106AE61AD6924F0030605F00105B3
:1003D0000095334D06EB050CDCF80850A607360FE8
:1003E00007FA06F825EA0805DFF8B880404503D18A
:1003F0004FF0000817E044E0DFF8AC80404502D140
:100400004FF001080FE0DFF8A480404502D14FF023
:10041000020808E0DFF89880404502D14FF0030859
:1004200001E04FF0040808FA06F848EA0508CCF89D
:1004300008804D68D9F80060ED024D4601D516439D
:1004400000E096432E604D68DAF80060AD02554634
:1004500001D5164300E096432E604D68DBF800603E
:10046000AD035D4601D5164300E096432E604D680E
:10047000DEF80060ED03754601D5164300E09643B3
:100480002E60641C0D682A46E5407FF431AFBDE85C
:10049000F88F000008040140000011100010024015
:1004A0000000014000080140000C01400010014024
:1004B000001401408068084000D00120704700000F
:1004C00001488068704700000C00002002488168E5
:1004D00002781144816070470C000020074810B575
:1004E000016841F010010160032000F0A7F80F201F
:1004F00000F006F800F050F8002010BD0020024087
:1005000030B50546204887B0C16941F00101C1619D
:10051000C06906A900F00100009001A800F036F9BA
:100520000498B8B100F052F9400018494FF08042E9
:10053000B0FBF1F11648491E0260416040F2E7321B
:100540000021C0E903218160816100F017FB0400F4
:1005500003D015E000F03AF9E7E70D4800F03CFB66
:1005600004000DD11C2000F03BF8102D07D2002212
:1005700029461C2000F042F80648056000E00124EE
:1005800007B0204630BD00000010024040420F007E
:1005900024030020100000200F4808B5816941F0B5
:1005A00001018161816901F001010091C16941F09E
:1005B0008051C161C069002200F0805000900F217D
:1005C000901E00F01BF80548416821F0E06141F001
:1005D0000071416008BD00000010024000000140B1
:1005E000002809DB00F01F02012191404009800032
:1005F00000F1E020C0F8001170470000F0B40E4B8D
:100600001B680C46C3F30223C3F10705042D00D970
:100610000425191D072901D2002300E0DB1E012655
:1006200006FA05F1491E214099409E40761E16406B
:100630003143F0BC00F0C0BD0CED00E0064900F015
:10064000070208684FF6FF03184040EA0220034AF9
:1006500010430860704700000CED00E00000FA0550
:100660002DE9F0470F46050061D0434E306800F099
:100670000700B84209D2306820F0070038433060E4
:10068000306800F00700B84251D128683B4C810720
:1006900012D5400703D5606840F4E06060602878B8
:1006A000000703D5606840F4605060606068A96826
:1006B00020F0F000084360602878C00728D0686800
:1006C000012810D02168022810D0890700292EDACD
:1006D000616821F0030101436160FFF7F1FE80468C
:1006E00041F288390DE021688903EFE78901EDE7E0
:1006F000FFF7E6FEA0EB0801494502D90320BDE85B
:10070000F0876068696800F00C00B0EB810FEFD1F2
:10071000306800F00700B8420BD9306820F00700BD
:1007200038433060306800F00700B84201D0012043
:10073000E5E72878400705D56068E96820F4E060BF
:10074000084360602878000706D56068296920F4AE
:10075000605040EAC100606000F058F86168084AE3
:10076000C1F30311515CC84006490860064800689F
:10077000FFF7C6FE0020C2E7002002400010024042
:100780005E22000818000020100000200F220260E6
:100790000C4A536803F003034360536803F0F0030B
:1007A0008360536803F4E063C36052684FF4E0630E
:1007B00003EAD20202610448006800F00700086002
:1007C0007047000000100240002002400448054924
:1007D00000684968044AC1F30221515CC84070476F
:1007E00018000020001002406E220008044805494D
:1007F00000684968044AC1F3C221515CC84070478F
:1008000018000020001002406E2200080E4A5168B5
:100810000E4801F00C03042B11D0082B0FD10C480B
:10082000C1F38343C903C05C0AD55168084AC1F3C8
:100830004041921E515C054A5043B0FBF1F07047B5
:1008400004494843704700000010024000127A003B
:100850004E22000800093D002DE9F84F040070D039
:100860002078C04DC00749D06868C0F381000128D6
:1008700007D06868C0F38100022809D16868C00306
:1008800006D52868800339D560680028E7D035E0B0
:100890006068B0F5803F0BD010B1B0F5A02F11D03B
:1008A000286820F480302860286820F4802002E046
:1008B000286840F480302860606890B1FFF700FE3F
:1008C00006460AE0286840F480202860F0E700BF70
:1008D000FFF7F6FD801B642873D828688003F7D5DE
:1008E0000CE0FFF7EDFD064605E000BFFFF7E8FD71
:1008F000801B6428F0D828688003F7D420789A4EAB
:1009000080074FF001094FF0000839D5686810F0F2
:100910000C0F07D06868C0F38100022809D168680D
:10092000C00306D42868800714D52069012808D19F
:1009300010E02069B0B1C6F80090FFF7C1FD07468E
:1009400005E00AE1FFF7BCFDC01B0228C4D82868F7
:100950008007F7D52868616920F0F80040EAC100F7
:1009600028600DE0C6F80080FFF7AAFD074604E006
:10097000FFF7A6FDC01B022823D828688007F7D4FC
:10098000207800072CD57948A169D9B1C0F800902A
:10099000FFF796FD074604E0FFF792FDC01B022813
:1009A0000FD8686A8007F7D571484FF4FA5100688C
:1009B000B0FBF1F0009000BF0098411E0091FAD208
:1009C0000EE080E0C0F80080FFF77AFD074604E003
:1009D000FFF776FDC01B022875D8686A8007F7D438
:1009E0002078400760D5E8690027C00008D4E8698E
:1009F00040F08050E861E869012700F080500090E5
:100A00005C480168C90513D40168834641F48071CC
:100A10000160FFF755FD824606E000BFFFF750FD7D
:100A2000A0EB0A0064284ED8DBF80000C005F5D51D
:100A3000E06801280AD008B1052813D0286A20F000
:100A400001002862286A20F0040002E0286A40F0D1
:100A500001002862E06841F2883B98B1FFF730FD61
:100A600082460BE0286A40F004002862EEE700BFEF
:100A7000FFF726FDA0EB0A0159455AD8286A8007DE
:100A8000F6D50CE0FFF71CFD824605E0FFF718FDE8
:100A9000A0EB0A0159454CD8286A8007F6D41FB14B
:100AA000E86920F08050E861E06988B36968C1F3C3
:100AB0008101022944D00228C6F8608004D0FFF7E3
:100AC000FFFC044638E034E0FFF7FAFC074604E098
:100AD000FFF7F6FCC01B02282BD828688001F7D44A
:100AE000206AB0F5803F05D16868A16820F4003025
:100AF00008436860D4E908010843696821F4741167
:100B000008436860C6F86090FFF7DAFC044606E028
:100B100025E000BFFFF7D4FC001B022809D8286895
:100B20008001F7D51BE000BFFFF7CAFC001B0228BD
:100B300002D90320BDE8F88F28688001F4D40EE0C4
:100B40000128F7D06868226A00F48031914204D10C
:100B5000616A00F47010884201D00120EAE70020A9
:100B6000E8E70000001002400000424280044242D8
:100B700018000020007000407047704710B5040056
:100B800003D094F83D0010B107E0012010BD002013
:100B900084F83C00204600F01EF8022084F83D0056
:100BA000211D206800F05EFA012084F8460084F8D8
:100BB0003E0084F83F0084F8400084F8410084F847
:100BC000420084F8430084F8440084F8450084F827
:100BD0003D00002010BD704790F83D10012901D064
:100BE00001207047022180F83D100168CA6842F078
:100BF0000102CA6000680B49884208D0B0F1804FFA
:100C000005D00949884202D00849884204D1816848
:100C100001F00701062903D0016841F001010160DC
:100C200000207047002C01400004004000080040F4
:100C300070472DE9F04104460068C66805694FF029
:100C40000007A90713D5B10711D5F91E01610120CD
:100C50002077206880698007204602D0FFF7E8FFF0
:100C600004E000F07EF8204600F07CF82777680763
:100C700016D5700714D521686FF0040008610220B2
:100C800020772068806910F4407F204602D0FFF76B
:100C9000CFFF04E000F065F8204600F063F8277706
:100CA000280715D5300713D521686FF008000861B3
:100CB000042020772068C0698007204602D0FFF713
:100CC000B7FF04E000F04DF8204600F04BF827771E
:100CD000E80616D5F00614D521686FF010000861FB
:100CE000082020772068C06910F4407F204602D099
:100CF000FFF79EFF04E000F034F8204600F032F8E1
:100D00002777E80708D0F00706D021686FF00100C8
:100D10000861204600F027F8280608D5300606D5D9
:100D200021686FF0800008612046FFF725FF680604
:100D300008D5700606D521686FF04000086120468E
:100D400000F018F8A8060AD5B00608D521686FF09B
:100D5000200008612046BDE8F041FFF70EBFBDE866
:100D6000F081704770470068B0F1804F01D1FFF704
:100D7000ADBB7047704770B5040004D094F84100D3
:100D8000002510B106E0012070BD84F840502046D7
:100D900000F024F8242084F841002068C16821F480
:100DA0000051C160204600F099F92068016921F4E2
:100DB000904101612068416921F02A014161206868
:100DC000C16841F40051C1606564202084F841008D
:100DD00084F842006563002070BD000030B585B026
:100DE00000240094019402940394006814498842FA
:100DF00024D11448816941F480418161816901F401
:100E000080410491816941F00401816180690E4D46
:100E100000F0040004904FF4007000900220019054
:100E20000320039069462846FFF754FA2815CDE9B8
:100E30000004694628460294FFF74CFA05B030BD1D
:100E4000003801400010024000080140FEE70000A9
:100E500010B58EB01C220D496846FFF7BFF900217E
:100E6000684600F05DFB0A4C08491C2260601C319A
:100E700007A8FFF7B3F9002107A800F051FBA06015
:100E800000F06EFF20600EB010BD000014220008BC
:100E90000000002000B585B00020019003900D48AF
:100EA000816941F020018161816901F02001049193
:100EB000816941F0040181618069694600F00400A4
:100EC000049003200090012002900348FFF702FAEB
:100ED00005B000BD00100240000801400C4810B5EC
:100EE0000A4901604FF4E1314160002181600C2228
:100EF000C160C0E904128161C161FFF73CFF0028B5
:100F000003D0BDE81040FFF7E2B910BD0038014042
:100F1000DC020020FEE7FEE7194D1A4C01212046B5
:100F2000FFF7C8FA58B9142000F0EEFA0121204664
:100F3000FFF7C0FA18B90121286800F01FFF01214E
:100F40002046FFF7B7FA0028F9D002212046FFF724
:100F5000B1FA58B9142000F0D7FA02212046FFF761
:100F6000A9FA18B90221286800F008FF02212046DA
:100F7000FFF7A0FA0028F9D00A2000F0C5FACDE763
:100F8000000000200008014008B5094D4FF0FF3473
:100F9000012300941A460321286800F035FF01461A
:100FA00004A000F0F9F80A2000F0AEFAF0E7000023
:100FB00000000020B7B5BBD8D6B5A3BA252378204A
:100FC00020A3ACC1BDB8F6B0B4BCFCBEF9B0B4CF80
:100FD000C20D0A0010B5502080F31188BFF34F8F67
:100FE000BFF36F8F01F04EF818B104494FF08050F5
:100FF0000860002080F3118810BD000004ED00E0BF
:1010000030B58FB028216846FFF701F914210AA8EE
:10101000FFF7FDF80121080400240491CDE9001038
:10102000CDE908040294022507956846FFF714FCF1
:1010300008B172B6FEE70F200A90CDE90B540D946B
:1010400000210AA80E94FFF70BFB002801D072B60E
:10105000FEE70FB030BD70470148FFF7EABD000062
:1010600024030020F0B50268194B1A4C1A4D4FF0BA
:101070008047984205D0B84203D0A04201D0A84290
:1010800003D122F070064A683243984205D0B84234
:1010900003D0A04201D0A84203D122F44074CA6810
:1010A00022434C6922F08002224302608A68C262B5
:1010B0000A688262984201D1096901630121416194
:1010C0000169C90703D0016921F001010161F0BD87
:1010D000002C0140000400400008004070B50446A8
:1010E00000680169E26821F44051114301612169FE
:1010F000A0680843616908432168CA6841F20C632B
:101100009A430243CA6020684169A26921F4407190
:10111000114341611E492068884202D1FFF766FBF6
:1011200001E0FFF753FB00EBC00101EB0012606828
:1011300064218000B2FBF0F3B3FBF1F36FF018060B
:101140007343B2FBF0F5B2FBF0F605EB83053223F7
:1011500003EB0515B5FBF1F5B6FBF1F605F0F0056F
:1011600005EB0615B2FBF0F6B2FBF0F0B0FBF1F0C8
:101170006FF01802504306EB800003EB0010B0FB49
:10118000F1F0216800F00F002844886070BD000075
:1011900000380140FEE700000FB4054B10B503A96D
:1011A000044A029800F028F810BC5DF814FB000017
:1011B000B9140008840000200907090E002804DB88
:1011C00000F1E02080F80014704700F00F0000F1FB
:1011D000E02080F8141D704702E008C8121F08C103
:1011E000002AFAD170477047002001E001C1121FA8
:1011F000002AFBD1704700002DE9FF4F8DB09B46C0
:101200000F460446002606E025280BD05A460F99C3
:101210009047641C761C20780028F5D111B0304628
:10122000BDE8F08F0025A8460122984900E005435B
:1012300014F8013F203B02FA03F00842F7D120786E
:101240002E2817D114F8010F45F004052A280ED0D6
:101250006FF02F022078A0F1300109290AD808EB9D
:10126000880102EB410100EB0108641CF2E757F82A
:10127000048B641C20786C280DD004DC4C2812D020
:101280006A2811D104E074280DD07A280CD10AE024
:1012900045F4001507E0617845F48015814202D1DC
:1012A000641C05F58015641C2278692A45D008DC89
:1012B000002AB3D0582A69D0632A10D0642A08D1F2
:1012C0003BE0702A67D0732A13D0752A5CD0782A45
:1012D0005CD010465A460F999047761CD3E017F819
:1012E000040B8DF8000000208DF80100E946012074
:1012F00003E057F8049B4FF0FF3069074FF00005FB
:1013000001D40AE06D1C45450DDA8542FADB19F877
:1013100005100029F6D106E06D1C8542FCDB19F8AA
:1013200005100029F8D12E4404E019F8010B5A46A3
:101330000F9990476D1EF8D2A5E00A200021CDE953
:101340000801C5F3025002280DD001CFC117031EBA
:1013500071F100030DDA4FF0000CD0EB0C006CEBD8
:1013600001012D2308E0FF1D27F00707F7E8020120
:10137000EDE72B0504D52B238DF8283001233BE026
:10138000EB0739D02023F7E70A2000E010200021E6
:10139000CDE9080107E01020002145F00405CDE962
:1013A00008014FF00808C5F3025002280FD001CF02
:1013B00000214FF0000A2B071FD5702A0DD0DDE960
:1013C00008C38CF0100C5CEA030C0CD015E0FF1D78
:1013D00027F00707F7E80201EBE740228DF8282005
:1013E0004FF0010A0BE050EA010306D030238DF8DC
:1013F00028308DF8292002239A46582A04D024A2A6
:101400000DF120090B9209E026A2F9E7DDE9082396
:10141000FEF708FF0B9B9B5C09F8013D50EA0102B7
:10142000F4D1ADEB090020300890680701D44FF0EB
:1014300001080899884502DDA8EB010000E00020C2
:101440008046002506E00AA85A46405D0F9990475D
:101450006D1C761C5545F6DB04E030205A460F998A
:101460009047761CB8F10001A8F10108F5DC05E011
:1014700019F8010B5A460F999047761C0899481E97
:1014800008900029F4DC641CC5E60000092801006E
:1014900030313233343536373839616263646566EA
:1014A00000000000303132333435363738394142AC
:1014B000434445460000000004490A685206FCD532
:1014C000024AC1B2121D116070470000003801408D
:1014D000FFF704F8FFF794FDFFF7DCFCFFF7FEFCD5
:1014E00003A0FFF759FEFFF7B3FC00F014F8FEE786
:1014F00068656C6C6F2077616E67000001460020A4
:10150000842900D0C81C704710B500B9012000F034
:1015100035FB002010BD10B500F0B6FB002010BD5B
:101520007FB50D4604464169B0F9080081B1A16953
:1015300071B1FFF7E3FFD4E905128DE80700D4E9A4
:1015400000102B46226900F064FD039004B070BDCA
:10155000FFF7D4FF03A9CDE90001208A2B4682B210
:10156000D4E9001000F028FD012801D00020EDE7AB
:101570000398EBE72DE9F041184C0F460546E66865
:101580002068001D00F026FA38B9206890F82C1069
:1015900001208840216981432161681C07D137B14E
:1015A0002168BDE8F0410E48091D00F063BA2068CB
:1015B0003544B5424560216805D2A06BBDE8F041D5
:1015C000091D00F03FBA606B091D00F03BFAA06AEC
:1015D000854200D2A562BDE8F08100001C00002019
:1015E000480400202DE9F041054600F04FFA2E4C4A
:1015F000A068401CA06020682C4F10B1606940B307
:101600002DE02560A068012829D1002606EB860080
:1016100007EB800000F008FA761C072EF6D323486B
:101620008C3000F001FA2148A03000F0FDF91F488D
:10163000B43000F0F9F91D48C83000F0F5F91B4846
:10164000DC3000F0F1F919488C3060631430A0638D
:1016500005E02068E96AC06A884200D82560606AAF
:10166000401C6062E96A01202269884010432061C1
:1016700001EB810007EB8000291D00F0FBF900F071
:1016800025FA606900280CD02068E96AC06A88429F
:1016900007D207494FF080500860BFF34F8FBFF368
:1016A0006F8FBDE8F08100001C0000206C0300205B
:1016B00004ED00E010B5044690F8510058B101283F
:1016C0000CD002280FD0502080F31188BFF34F8F29
:1016D000BFF36F8FFEE7206B00F00CFA2046BDE8E9
:1016E000104000F007BA10BD10484FF440614207A7
:1016F00006D0C01D0D4920F00700411AC1F5406118
:101700000B4A00230144C2E900030839183A21F0CA
:10171000070111604B600B600B1AC0E90013936066
:101720004FF0004053605061704700005C0400209F
:1017300070000020144E154CA6F1C8074FF08058D9
:10174000DFF84C9012E000BF00F0A0F9F068C56827
:10175000281D00F03FF9A068401EA0606068401E90
:10176000606000F0B3F92846FFF7A4FF6068002826
:10177000EAD138680128F9D9C9F80080BFF34F8F42
:10178000BFF36F8FF2E70000340400201C0000203C
:1017900004ED00E02DE9F0479A46DDE90984814631
:1017A0006FF00303206B03EB82021044089E20F0CD
:1017B0000707780707D0502080F31188BFF34F8FB9
:1017C000BFF36F8FFEE7002561B1002023180A5C8C
:1017D00083F834200A5C12B1401C1028F6D384F838
:1017E000435001E084F83450072E00D30626E66209
:1017F000C4E91165201D00F022F904F1180000F081
:101800001EF92461C6F107006462A061E56484F8F2
:10181000505052464946384600F0CAF82060B8F1A8
:10182000000F01D0C8F80040BDE8F08730B511497D
:1018300000E011460A688242FBD34B685C18844280
:1018400003D1406818444860084643681C18944215
:1018500009D1084C183C2468A24209D052681A44A5
:1018600042600A6812680260814200D0086030BDA0
:101870000460F9E7700000200648416B096829B14F
:10188000416BC968C9684968816270474FF0FF3190
:10189000FAE700001C00002008484068401C4FF098
:1018A000500080F3118804D0BFF34F8FBFF36F8FC8
:1018B000FEE7BFF34F8FBFF36F8FFEE77800002086
:1018C0000346002012B1994302D070470B42FCD06E
:1018D000012070472DE9F0410546002700F00AFA83
:1018E000324E306808B9FFF7FFFE706905424ED1ED
:1018F000C5B3083568070ED005F00700C0F1080031
:101900000544680707D0502080F31188BFF34F8F3C
:10191000BFF36F8FFEE72DB37068854237D8234839
:10192000183001460C6801E020460C466168A94267
:1019300002D221680029F7D131688C4227D007688C
:101940002168016060680837411B10290FD96019B0
:10195000420708D0502080F31188BFF34F8FBFF3A8
:101960006F8FFEE713E041606560FFF75FFF61681E
:101970007068401A7060B268904200D2B0607069BE
:1019800001430020C4E90001F068401CF06000F051
:10199000DFFB780707D0502080F31188BFF34F8F0B
:1019A000BFF36F8FFEE73846BDE8F0815800002096
:1019B00010B5031F4FF080741C601B1F21F0010144
:1019C0001960191F024B0B60143940380A6010BDB2
:1019D00099180008D0E9013201699A60D0E9012321
:1019E0005A604A68824201D182684A6000220261DC
:1019F0000868401E086008687047000004490868CD
:101A00000A688069D26A0968C2F107028A61704770
:101A10001C000020034B036003F154000860802089
:101A2000106070478800002000F108014FF0FF327D
:101A3000C0E90112C160016100210160704700210D
:101A40000161704730B50B685A1C02D000F10802E2
:101A500002E0026904E02246546825689D42FAD9F2
:101A600053684B6099608A60516008610168491C45
:101A7000016030BD42684A6093688B60936859602A
:101A8000916008610168491C01607047502080F333
:101A90001188BFF34F8FBFF36F8F0A494868401C0E
:101AA000486001280CD10848006810F0FF0F07D0EB
:101AB000502080F31188BFF34F8FBFF36F8FFEE785
:101AC000704700007800002004ED00E008494868F5
:101AD00028B1401E486001D180F311887047502022
:101AE00080F31188BFF34F8FBFF36F8FFEE70000C5
:101AF0007800002070B500282AD0164DA0F1080407
:101B000060686969084207D1502080F31188BFF3EB
:101B10004F8FBFF36F8FFEE722683AB1502080F3FA
:101B20001188BFF34F8FBFF36F8FFEE7884360606C
:101B300000F0E0F860686968084468602046FFF7D4
:101B400075FE2869401C2861BDE8704000F000BBAC
:101B500070BD0000580000204FF0E020002101611E
:101B6000816105494FF47A720968B1FBF2F1491EAF
:101B700041610721016170471800002010B5020083
:101B800014D00F48006B38B1502080F31188BFF398
:101B90004F8FBFF36F8FFEE700F0ACF800211046C7
:101BA000FFF7E8FC00F0D4FA002807D105494FF010
:101BB00080500860BFF34F8FBFF36F8F10BD0000E0
:101BC0001C00002004ED00E010B51446030011D005
:101BD0001048026BB2B1026841F0004191610168A6
:101BE00018461831FFF746FF2046BDE81040012196
:101BF000FFF7C0BC502080F31188BFF34F8FBFF3B5
:101C00006F8FFEE7502080F31188BFF34F8FBFF333
:101C10006F8FFEE71C00002070B5194E326BFAB1D1
:101C200041F000410160C46814B3FFF7D3FE201DEA
:101C3000FFF7D0FEE16A0125326905FA01F0104391
:101C4000306101EB81000F4901EB8000211DFFF79E
:101C500011FFE06A3168C96A884200D9F56170BD38
:101C6000502080F31188BFF34F8FBFF36F8FFEE7D3
:101C7000502080F31188BFF34F8FBFF36F8FFEE7C3
:101C80001C0000206C03002010B586B000240394D3
:101C900005AA04A903A80494FFF7BCFEDDE903012B
:101CA0000094CDE9011000230EA11048059A00F020
:101CB000B0F90F490028C86211D0502080F3118874
:101CC000BFF34F8FBFF36F8F4FF0FF30886201205B
:101CD0004861CC6006B0BDE8104000F019B906B00C
:101CE00010BD000049444C450000000035170008B5
:101CF0001C0000200248016B491C01637047000072
:101D00001C0000201448016B11B10121C161704712
:101D10000021C1610169B1FA81F1C1F11F0101EB3B
:101D200081020E4951F822306BB101EB820101F1C1
:101D300008034A6852684A609A4201D152684A6070
:101D4000D16801607047502080F31188BFF34F8F36
:101D5000BFF36F8FFEE700001C0000206C03002023
:101D600070B51C20FFF7B6FD040005D00025201D2E
:101D70002560FFF759FE2576204670BD2DE9F0411C
:101D80000027884604000AD05FEA18600FD0502070
:101D900080F31188BFF34F8FBFF36F8FFEE75020A2
:101DA00080F31188BFF34F8FBFF36F8FFEE7261DBF
:101DB00004F10C05FFF79EFF2168F06841EA080175
:101DC000216017E0D0E9001601F07F42530123683B
:101DD00021F07F4102D40B4203D10AE031EA030330
:101DE00007D1D20100D50F43216841F00071FFF700
:101DF00013FF3046A842E5D12068B843206000F0C8
:101E0000A7F92068BDE8F0812DE9F0479A46DDF892
:101E1000209090460D4604004FF0000709D0280E90
:101E20000FD0502080F31188BFF34F8FBFF36F8F17
:101E3000FEE7502080F31188BFF34F8FBFF36F8F01
:101E4000FEE71DB100F010F940B112E0502080F320
:101E50001188BFF34F8FBFF36F8FFEE7B9F1000F0B
:101E600007D0502080F31188BFF34F8FBFF36F8FDF
:101E7000FEE7FFF73FFF2668524629463046FFF748
:101E80001FFD30B1B8F1000F1AD02068A8432060C0
:101E900016E0B9F1000F13D0B8F1000F01D04FF0E8
:101EA0008077BAF1000F01D047F0806745EA07015B
:101EB0004A46201DFFF788FE00F04AF918B10AE0F3
:101EC00000F046F91FE011494FF080500860BFF361
:101ED0004F8FBFF36F8FFFF791FD0646800110D43F
:101EE000FFF7D4FD2668524629463046FFF7E8FC46
:101EF00028B1B8F1000F02D02068A8432060FFF796
:101F0000E5FD26F07F463046BDE8F08704ED00E0B1
:101F10001CB5264908780190FF20087008788DF8D4
:101F200000009DF800009DF8002000F0F0009042B5
:101F300007D0502080F31188BFF34F8FBFF36F8F0E
:101F4000FEE79DF800001A4C00F0500020700720BA
:101F5000A06005E09DF8002052008DF80020401E92
:101F60009DF800201206F5D4A060032807D0502069
:101F700080F31188BFF34F8FBFF36F8FFEE74FF4ED
:101F80004070A060019808700A48016841F470012F
:101F90000160016841F070410160FFF7DDFD002044
:101FA0006060FEF7BFF800201CBD000000E400E008
:101FB0007800002020ED00E02DE9FF5F8346DDE999
:101FC0000E87994616468A469000FFF783FC050067
:101FD0001CD05420FFF77EFC040014D000202563A1
:101FE00084F85100CDE90240CDE900874B463246E6
:101FF00051465846FFF7CEFB2046FFF7F3FA012083
:1020000004B0BDE8F09F2846FFF774FD4FF0FF30A5
:10201000F6E7F0B585B0DDE90B640A9DA6B1DCB149
:10202000542700972663022684F85160002604AFE7
:10203000CDE90246CDE90057FFF7ACFB2046FFF79C
:10204000D1FA049805B0F0BD502080F31188BFF399
:102050004F8FBFF36F8FFEE7502080F31188BFF3DF
:102060004F8FBFF36F8FFEE70548416919B1006BD1
:1020700018B100207047012070470220704700000F
:102080001C0000202DE9F0412F4C0026206B28B1C8
:10209000A069401CA0613046BDE8F081E5686D1C78
:1020A000E56013D1606B006838B1502080F311886F
:1020B000BFF34F8FBFF36F8FFEE7606BA16B616360
:1020C000A063206A401C2062FFF7D6FBA06ADFF8FD
:1020D0007C80854209D3606B0068A0B1606BC068EA
:1020E000C7687868854211D2A0622068C06A00EB98
:1020F000800158F82100012800D90126E069002854
:10210000C9D00126C7E74FF0FF30EDE7381DFFF7D4
:1021100061FCB86A18B107F11800FFF75BFCF96AB7
:102120000120226988401043206101EB810108EB06
:102130008100391DFFF79EFCF86A2168C96A884250
:10214000C9D30126C7E700001C0000206C03002053
:102150002DE9F0472C4D00242746286B38B1FFF7B6
:1021600095FC286B401E2863286B40B146E0502048
:1021700080F31188BFF34F8FBFF36F8FFEE7A9681D
:10218000224E0120D1B3A6F1B40980463068E8B1EF
:10219000F068C46804F11800FFF71CFC201DFFF76D
:1021A00019FCE06A2A6908FA00F11143296100EB81
:1021B000800109EB8100211DFFF75CFCE06A2968C2
:1021C000C96A8842E2D3C5F81C80DFE70CB1FFF78B
:1021D00053FBAC6944B14646FFF754FF00B1EE61D2
:1021E000641EF9D10020A861E86938B108490127C7
:1021F00038070860BFF34F8FBFF36F8FFFF766FCA0
:102200003846BDE8F08700001C00002020040020B4
:1022100004ED00E078220008190F0008000000001B
:10222000000000008000000000000000000000002E
:1022300080220008890F0008000000000000000054
:102240008000000000000000000000000102020306
:102250000405060708090A0B0C0D0E0F10100000EC
:102260000000000000000102030406070809000046
:1022700000000102030400007461736B3100000070
:102280007461736B32000000A82200080000002077
:1022900088000000D81100083023000888000020C2
:1022A000D8130000E8110008000000000000000042
:1022B000000000000100000010000000000000000D
:1022C00000127A0000000000000000000000000082
:1022D00000000000000000000000000000000000FE
:1022E00000000000000000000000000000000000EE
:1022F00000000000000000000000000000000000DE
:1023000000000000000000000000000000000000CD
:1023100000000000000000000000000000000000BD
:1023200000000000AAAAAAAA000000000000000005
:04000005080000ED02
:00000001FF
