:020000040800F2
:10000000F0190020990100082F0F0008710E000858
:100010002D0F000829020008D71100080000000079
:1000200000000000000000000000000001010008C6
:100030005D0200080000000045010008550F00089F
:10004000B3010008B3010008B3010008B3010008C0
:10005000B3010008B3010008B3010008B3010008B0
:10006000B3010008B3010008B3010008B3010008A0
:10007000B3010008B3010008B3010008B301000890
:10008000B3010008B3010008B3010008B301000880
:10009000B3010008B3010008B3010008B301000870
:1000A000B3010008B3010008B3010008B301000860
:1000B000D90F0008B3010008B3010008B30100081C
:1000C000B3010008B3010008B3010008B301000840
:1000D000B3010008B3010008B3010008B301000830
:1000E000B3010008B3010008B3010008DFF80CD029
:1000F00000F088F80048004775120008F019002049
:10010000224B19680868B0E8F00F80F30988BFF344
:100110006F8F4FF0000080F311884EF00D0E704786
:100120000000000006480068006880F3088862B696
:1001300061B6BFF34F8FBFF36F8F00DF00BF00BF0B
:1001400008ED00E0EFF30980BFF36F8F0F4B1A68E3
:1001500020E9F00F106008B54FF0500080F31188CF
:10016000BFF34F8FBFF36F8F01F070FF4FF00000B0
:1001700080F31188BDE8084019680868B0E8F00FFE
:1001800080F30988BFF36F8F704700BF1C00002009
:10019000EFF3058070470000064880470648004797
:1001A000FEE7FEE7FEE7FEE7FEE7FEE7FEE7FEE727
:1001B000FEE7FEE7D70F0008ED00000840EA010364
:1001C0009B0703D009E008C9121F08C0042AFAD20D
:1001D00003E011F8013B00F8013B521EF9D27047D1
:1001E000D2B201E000F8012B491EFBD27047002279
:1001F000F6E710B513460A4604461946FFF7F0FF26
:10020000204610BD064C074D06E0E06840F00103B3
:1002100094E8070098471034AC42F6D3FFF76AFF22
:10022000082B0008282B0008FEE7000001A000F0C2
:10023000D3BF00006C616F706F206D65690D0A009F
:1002400001A000F0C9BF000077616E6777656E6A34
:1002500069652073687561690D0A0000704772B6A0
:10026000FEE700002DE9F84FDFF8B8910024A9F16E
:10027000040B23460F2709F1040AABF1040EC9E071
:100280000125A5402A40AA427DD1674ED1F804C07D
:10029000ACEB0608B44532D014DCBCF1030F3AD005
:1002A00009DCBCF1000F2AD0BCF1010F1CD0BCF15D
:1002B000020F31D11DE0BCF1110F17D0BCF1120FAC
:1002C0002AD119E0B8F5881F19D006DCB8F5803FAF
:1002D00015D0B8F5801F1FD111E0B8F5001F0ED062
:1002E000B8F5041F18D10AE0CB6815E0CB681B1DD8
:1002F00012E0CB6808330FE0CB680C330CE08B685E
:100300002BB1012B4FF0080303D0456104E0042317
:1003100002E0056100E00023FF2A01D8064601E063
:1003200000F104064FEA840501D9A5F12005D6F8AD
:10033000008007FA05FC28EA0C0803FA05F548EAEC
:100340000508C6F800804D68ED0062D5374DAE69EE
:1003500046F00106AE61AD6924F0030605F0010523
:100360000095334D06EB050CDCF80850A607360F58
:1003700007FA06F825EA0805DFF8B880404503D1FA
:100380004FF0000817E044E0DFF8AC80404502D1B0
:100390004FF001080FE0DFF8A480404502D14FF094
:1003A000020808E0DFF89880404502D14FF00308CA
:1003B00001E04FF0040808FA06F848EA0508CCF80E
:1003C00008804D68D9F80060ED024D4601D516430E
:1003D00000E096432E604D68DAF80060AD025546A5
:1003E00001D5164300E096432E604D68DBF80060AF
:1003F000AD035D4601D5164300E096432E604D687F
:10040000DEF80060ED03754601D5164300E0964323
:100410002E60641C0D682A46E5407FF431AFBDE8CC
:10042000F88F000008040140000011100010024085
:100430000000014000080140000C01400010014094
:100440000014014001488068704700000C00002043
:100450000248816802781144816070470C000020D6
:10046000074810B5016841F010010160032000F059
:10047000A7F80F2000F006F800F050F8002010BD9B
:100480000020024030B50546204887B0C16941F0E0
:100490000101C161C06906A900F00100009001A836
:1004A00000F036F90498B8B100F052F9400018494C
:1004B0004FF08042B0FBF1F11648491E02604160E6
:1004C00040F2E7320021C0E903218160816100F040
:1004D00017FB040003D015E000F03AF9E7E70D48F8
:1004E00000F03CFB04000DD11C2000F03BF8102D67
:1004F00007D2002229461C2000F042F80648056079
:1005000000E0012407B0204630BD0000001002408A
:1005100040420F008C070020100000200F4808B553
:10052000816941F001018161816901F0010100915E
:10053000C16941F08051C161C069002200F0805062
:1005400000900F21901E00F01BF80548416821F033
:10055000E06141F00071416008BD00000010024000
:1005600000000140002809DB00F01F02012191403A
:100570004009800000F1E020C0F800117047000041
:10058000F0B40E4B1B680C46C3F30223C3F10705FE
:10059000042D00D90425191D072901D2002300E0EC
:1005A000DB1E012606FA05F1491E214099409E40B6
:1005B000761E16403143F0BC00F016BE0CED00E094
:1005C000064900F0070208684FF6FF03184040EAAA
:1005D0000220034A10430860704700000CED00E061
:1005E0000000FA052DE9F0470F46050061D0434EA3
:1005F000306800F00700B84209D2306820F00700E8
:1006000038433060306800F00700B84251D12868A4
:100610003B4C810712D5400703D5606840F4E06089
:1006200060602878000703D5606840F4605060601F
:100630006068A96820F0F000084360602878C0076F
:1006400028D06868012810D02168022810D08907B6
:1006500000292EDA616821F0030101436160FFF790
:10066000F1FE804641F288390DE021688903EFE709
:100670008901EDE7FFF7E6FEA0EB0801494502D945
:100680000320BDE8F0876068696800F00C00B0EBFB
:10069000810FEFD1306800F00700B8420BD9306805
:1006A00020F0070038433060306800F00700B8429F
:1006B00001D00120E5E72878400705D56068E968A2
:1006C00020F4E060084360602878000706D5606881
:1006D000296920F4605040EAC100606000F058F8D9
:1006E0006168084AC1F30311515CC84006490860BB
:1006F00006480068FFF7C6FE0020C2E7002002405F
:1007000000100240E22A000818000020100000201B
:100710000F2202600C4A536803F0030343605368DE
:1007200003F0F0038360536803F4E063C36052682E
:100730004FF4E06303EAD20202610448006800F06B
:1007400007000860704700000010024000200240CF
:100750000448054900684968044AC1F30221515C14
:10076000C84070471800002000100240F22A00081C
:100770000448054900684968044AC1F3C221515C34
:10078000C84070471800002000100240F22A0008FC
:100790000E4A51680E4801F00C03042B11D0082BAF
:1007A0000FD10C48C1F38343C903C05C0AD551681B
:1007B000084AC1F34041921E515C054A5043B0FBC8
:1007C000F1F07047044948437047000000100240B0
:1007D00000127A00D22A000800093D002DE9F84FE6
:1007E000040070D02078C04DC00749D06868C0F3BD
:1007F0008100012807D06868C0F38100022809D170
:100800006868C00306D52868800339D56068002869
:10081000E7D035E06068B0F5803F0BD010B1B0F59F
:10082000A02F11D0286820F480302860286820F498
:10083000802002E0286840F480302860606890B131
:10084000FFF700FE06460AE0286840F48020286092
:10085000F0E700BFFFF7F6FD801B642873D8286817
:100860008003F7D50CE0FFF7EDFD064605E000BF7D
:10087000FFF7E8FD801B6428F0D828688003F7D4D0
:1008800020789A4E80074FF001094FF0000839D5C3
:10089000686810F00C0F07D06868C0F38100022868
:1008A00009D16868C00306D42868800714D5206978
:1008B000012808D110E02069B0B1C6F80090FFF718
:1008C000C1FD074605E00AE1FFF7BCFDC01B022899
:1008D000C4D828688007F7D52868616920F0F80037
:1008E00040EAC10028600DE0C6F80080FFF7AAFDCD
:1008F000074604E0FFF7A6FDC01B022823D828689E
:100900008007F7D4207800072CD57948A169D9B1A0
:10091000C0F80090FFF796FD074604E0FFF792FD50
:10092000C01B02280FD8686A8007F7D571484FF4BA
:10093000FA510068B0FBF1F0009000BF0098411E32
:100940000091FAD20EE080E0C0F80080FFF77AFD57
:10095000074604E0FFF776FDC01B022875D8686AD9
:100960008007F7D42078400760D5E8690027C000E9
:1009700008D4E86940F08050E861E869012700F098
:10098000805000905C480168C90513D40168834613
:1009900041F480710160FFF755FD824606E000BF1B
:1009A000FFF750FDA0EB0A0064284ED8DBF80000EA
:1009B000C005F5D5E06801280AD008B1052813D094
:1009C000286A20F001002862286A20F0040002E072
:1009D000286A40F001002862E06841F2883B98B143
:1009E000FFF730FD82460BE0286A40F004002862E1
:1009F000EEE700BFFFF726FDA0EB0A0159455AD8E4
:100A0000286A8007F6D50CE0FFF71CFD824605E05A
:100A1000FFF718FDA0EB0A0159454CD8286A80075A
:100A2000F6D41FB1E86920F08050E861E06988B32E
:100A30006968C1F38101022944D00228C6F86080A8
:100A400004D0FFF7FFFC044638E034E0FFF7FAFC7F
:100A5000074604E0FFF7F6FCC01B02282BD82868E5
:100A60008001F7D4206AB0F5803F05D16868A1689D
:100A700020F4003008436860D4E90801084369683D
:100A800021F4741108436860C6F86090FFF7DAFC3F
:100A9000044606E025E000BFFFF7D4FC001B022857
:100AA00009D828688001F7D51BE000BFFFF7CAFC12
:100AB000001B022802D90320BDE8F88F28688001B6
:100AC000F4D40EE00128F7D06868226A00F480317F
:100AD000914204D1616A00F47010884201D0012073
:100AE000EAE70020E8E70000001002400000424270
:100AF0008004424218000020007000407047704798
:100B000010B5040003D094F83D0010B107E00120B7
:100B100010BD002084F83C00204600F01EF80220A2
:100B200084F83D00211D206800F05CFA012084F863
:100B3000460084F83E0084F83F0084F8400084F8C2
:100B4000410084F8420084F8430084F8440084F8AB
:100B5000450084F83D00002010BD704790F83D101E
:100B6000012901D001207047022180F83D10016861
:100B7000CA6842F00102CA6000680B49884208D086
:100B8000B0F1804F05D00949884202D00849884217
:100B900004D1816801F00701062903D0016841F002
:100BA0000101016000207047002C0140000400405A
:100BB0000008004070472DE9F04104460068C6680F
:100BC00005694FF00007A90713D5B10711D5F91E24
:100BD000016101202077206880698007204602D0CB
:100BE000FFF7E8FF04E000F07EF8204600F07CF814
:100BF0002777680716D5700714D521686FF00400B1
:100C00000861022020772068806910F4407F204628
:100C100002D0FFF7CFFF04E000F065F8204600F0B7
:100C200063F82777280715D5300713D521686FF0AB
:100C300008000861042020772068C06980072046EA
:100C400002D0FFF7B7FF04E000F04DF8204600F0B7
:100C50004BF82777E80616D5F00614D521686FF013
:100C600010000861082020772068C06910F4407FD8
:100C7000204602D0FFF79EFF04E000F034F8204643
:100C800000F032F82777E80708D0F00706D021688F
:100C90006FF001000861204600F027F8280608D50B
:100CA000300606D521686FF0800008612046FFF706
:100CB00025FF680608D5700606D521686FF040004C
:100CC0000861204600F018F8A8060AD5B00608D535
:100CD00021686FF0200008612046BDE8F041FFF771
:100CE0000EBFBDE8F081704770470068B0F1804FDB
:100CF00001D1FFF7ADBB7047704770B5040004D059
:100D000094F84100002510B106E0012070BD84F880
:100D10004050204600F024F8242084F84100206848
:100D2000C16821F40051C160204600F0BFF920687D
:100D3000016921F4904101612068416921F02A0193
:100D400041612068C16841F40051C16065642020A0
:100D500084F8410084F842006563002070BD000003
:100D600030B585B000240094019402940394006887
:100D70001449884224D11448816941F48041816139
:100D8000816901F480410491816941F0040181612C
:100D900080690E4D00F0040004904FF40070009044
:100DA000022001900320039069462846FFF75AFA73
:100DB0002815CDE90004694628460294FFF752FA47
:100DC00005B030BD0038014000100240000801406D
:100DD0002DE9F843044690F84100984616460D4622
:100DE000202802D00220BDE8F88385B17EB1002022
:100DF0006064212084F84100FFF724FBA68481462B
:100E0000E684A0682027B0F5805F02D003E00120CF
:100E1000E9E7206910B12E4600250EE000260CE01F
:100E20008021204600F09EF9A8B9C6B116F8010B42
:100E300021684860E08C401EE084E08C4B464FF017
:100E40000002CDF800800028EAD14FF04001204692
:100E500000F088F940B184F841700320C3E735F809
:100E6000020BC0F30800E3E784F841700020BAE702
:100E7000FEE7000030B5124D8BB00022D5E900012D
:100E8000CDE90701012107A800F048FA0D4C002226
:100E90006060D5E90201CDE90901114609A800F019
:100EA0003DFAA0601C2205F110016846FFF786F9A3
:100EB0000021684600F008FA20600BB030BD000049
:100EC000A42A000800000020094808B5816941F003
:100ED00020018161816901F020010091816941F067
:100EE00004018161806900F00400009008BD0000E9
:100EF000001002400C4810B50A4901604FF4E1317E
:100F00004160002181600C22C160C0E9041281614E
:100F1000C161FFF7F2FE002803D0BDE81040FFF7E3
:100F20009EB910BD0038014044070020FEE7FEE7EF
:100F3000074C4FF47A71606800F010FA4FF4FA61D0
:100F4000A06800F00BFA012000F0B2F9FBE7000006
:100F50000000002010B5502080F31188BFF34F8FA0
:100F6000BFF36F8F01F0BEFB18B104494FF0805002
:100F70000860002080F3118810BD000004ED00E03F
:100F800030B58FB028216846FFF731F914210AA83F
:100F9000FFF72DF90121080400240491CDE9001088
:100FA000CDE908040294022507956846FFF716FC70
:100FB00008B172B6FEE70F200A90CDE90B540D94EC
:100FC00000210AA80E94FFF70DFB002801D072B68D
:100FD000FEE70FB030BD70470148FFF7ECBD0000E1
:100FE0008C070020F0B50268194B1A4C1A4D4FF0CF
:100FF0008047984205D0B84203D0A04201D0A84211
:1010000003D122F070064A683243984205D0B842B4
:1010100003D0A04201D0A84203D122F44074CA6890
:1010200022434C6922F08002224302608A68C26235
:101030000A688262984201D1096901630121416114
:101040000169C90703D0016921F001010161F0BD07
:10105000002C0140000400400008004001680C31F1
:1010600051E8002F22F4907241E80023002BF5D1C3
:101070000168143151E8002F22F0010241E80023F9
:10108000002BF5D1016B012909D101680C3151E820
:10109000002F22F0100241E80023002BF5D120217F
:1010A00080F84210002101637047000070B50446CB
:1010B00000680169E26821F440511143016121692E
:1010C000A0680843616908432168CA6841F20C635B
:1010D0009A430243CA6020684169A26921F44071C1
:1010E000114341611E492068884202D1FFF740FB4D
:1010F00001E0FFF72DFB00EBC00101EB001260687F
:1011000064218000B2FBF0F3B3FBF1F36FF018063B
:101110007343B2FBF0F5B2FBF0F605EB8305322327
:1011200003EB0515B5FBF1F5B6FBF1F605F0F0059F
:1011300005EB0615B2FBF0F6B2FBF0F0B0FBF1F0F8
:101140006FF01802504306EB800003EB0010B0FB79
:10115000F1F0216800F00F002844886070BD0000A5
:10116000003801402DE9F843984617460D460446DD
:10117000089E24E0701C22D0FFF764F9A0EB080061
:10118000B0421AD8CEB12068C168490717D5802D62
:1011900015D0402D13D00168C94309070FD4016849
:1011A0000025406800902046FFF758FF0820606443
:1011B00084F840500120BDE8F8830320FBE7206855
:1011C000006835EA000004D00020B842D2D00020E8
:1011D000F1E70120F9E7FEE7014A024900F023B8F0
:1011E00049120008980000200907090E002804DBB6
:1011F00000F1E02080F80014704700F00F0000F1CB
:10120000E02080F8141D704702E008C8121F08C1D2
:10121000002AFAD170477047002001E001C1121F77
:10122000002AFBD170472DE9F04116460F460446CF
:10123000002503E03946B047641C6D1C2078002867
:10124000F8D12846BDE8F08138B504468DF8000095
:101250004FF6FF73012269460248FFF7B9FD2046A9
:1012600038BD000044070020EFF30580002800D0BF
:1012700001207047FFF7F4F8FFF782FEFFF724FE26
:10128000FFF738FE03A0FFF7A7FFFFF7F3FD00F01D
:1012900016F8FEE768656C6C6F2077616E670D0A63
:1012A0000000000001460020842900D0C81C7047BF
:1012B00010B500B9012000F015FE002010BD10B5DA
:1012C00000F078FE002010BD7FB50D460446416950
:1012D000B0F9080081B1A16971B1FFF7E3FFD4E96A
:1012E00005128DE80700D4E900102B46226901F0B1
:1012F000BAF9039004B070BDFFF7D4FF03A9CDE99C
:101300000001208A2B4682B2D4E9001001F07EF958
:10131000012801D00020EDE70398EBE71CB511C8C8
:101320006CB1CDE90004012907D000201346024624
:10133000012109A001F03EFB1CBD0120F6E7009051
:10134000012907D0002013460246012102A001F026
:1013500017FB1CBD0120F6E7000000002DE9FC4151
:10136000002507462E4601950C0000D10124FFF709
:101370007BFF009690B101AB22460921384601F06F
:1013800061FB012812D1019888B10A494FF08050C1
:101390000860BFF34F8FBFF36F8F08E00023224632
:1013A0000421384601F04EFB012800D0FF252846D5
:1013B000BDE8FC8104ED00E02DE9F041184C0F463A
:1013C0000546E6682068001D00F058FC38B9206822
:1013D00090F82C1001208840216981432161681C0C
:1013E00007D137B12168BDE8F0410E48091D00F072
:1013F00095BC20683544B5424560216805D2A06B94
:10140000BDE8F041091D00F071BC606B091D00F0E2
:101410006DFCA06A854200D2A562BDE8F0810000A3
:101420001C000020F00800202DE9F041054600F0E6
:1014300081FC2E4CA068401CA06020682C4F10B18D
:10144000606940B32DE02560A068012829D10026FD
:1014500006EB860007EB800000F03AFC761C072EB6
:10146000F6D323488C3000F033FC2148A03000F044
:101470002FFC1F48B43000F02BFC1D48C83000F092
:1014800027FC1B48DC3000F023FC19488C306063DB
:101490001430A06305E02068E96AC06A884200D879
:1014A0002560606A401C6062E96A01202269884008
:1014B0001043206101EB810007EB8000291D00F043
:1014C0002DFC00F057FC606900280CD02068E96A08
:1014D000C06A884207D207494FF080500860BFF3C6
:1014E0004F8FBFF36F8FBDE8F08100001C0000201C
:1014F0001408002004ED00E038B500F01BFC104C8F
:101500002068C8B90F4800F0E3FB0E48143000F023
:10151000DFFB0C48E060143020610A4B0020C03B28
:10152000009003F148020C210A2000F011FE206017
:1015300010B105A100F0A0FCBDE8384000F01ABCD5
:1015400058000020C4090020546D725100000000B2
:1015500030B4026C0B46002A0BD0C1681144C16044
:101560008468A14201D30168C16030BC1846FEF70F
:1015700025BE30BC70472DE9F041856B1746044607
:101580000026026C82B1C7B1E068FEF717FEE16881
:10159000206C091AE1602268914202D2A168081AFF
:1015A000E060022F16D017E02068A8B9A06801F00B
:1015B000FFF806460020A0600EE06068FEF7FEFD22
:1015C000216C606808446060A168884204D3206888
:1015D000606001E005B16D1E6D1CA5633046BDE87D
:1015E000F08110B5044690F8510058B101280CD094
:1015F00002280FD0502080F31188BFF34F8FBFF324
:101600006F8FFEE7206B00F0C9FB2046BDE810405D
:1016100000F0C4BB10BD000010484FF44061420709
:1016200006D0C01D0D4920F00700411AC1F54061E8
:101630000B4A00230144C2E900030839183A21F09B
:10164000070111604B600B600B1AC0E90013936037
:101650004FF000405360506170470000EC090020DB
:1016600084000020144E154CA6F1C8074FF0805896
:10167000DFF84C9012E000BF00F05CFBF068C5683A
:10168000281D00F0FBFAA068401EA0606068401EA4
:10169000606000F06FFB2846FFF7A3FF606800283A
:1016A000EAD138680128F9D9C9F80080BFF34F8F13
:1016B000BFF36F8FF2E70000DC0800201C00002061
:1016C00004ED00E00346009829B10260C0E90F3143
:1016D000012100F071BD0060F8E72DE9F0479A465E
:1016E000DDE9098481466FF00303206B03EB82027E
:1016F0001044089E20F00707780707D0502080F399
:101700001188BFF34F8FBFF36F8FFEE7002561B1E4
:10171000002023180A5C83F834200A5C12B1401CB4
:101720001028F6D384F8435001E084F83450072E93
:1017300000D30626E662C4E91165201D00F0D3FA45
:1017400004F1180000F0CFFA2461C6F107006462CA
:10175000A061E56484F8505052464946384600F08E
:101760007BFA2060B8F1000F01D0C8F80040BDE856
:10177000F0872DE9F0471E46DDE9089417460D0075
:10178000804615D0002C11D0FFF7B6FE04F11801E9
:10179000C4F8008081E86002201D00F0A4FA002F48
:1017A00004D014F8240F40F004002070BDE8F08746
:1017B000502080F31188BFF34F8FBFF36F8FFEE788
:1017C00030B5114900E011460A688242FBD34B68EC
:1017D0005C18844203D14068184448600846436856
:1017E0001C18944209D1084C183C2468A24209D024
:1017F00052681A4442600A6812680260814200D04E
:10180000086030BD0460F9E78400002070B5002452
:1018100041600B4D0061914206D8D11A8269914214
:1018200006D2011D286907E09A4203D2994201D3EA
:10183000012403E0011DE86800F058FA204670BD5D
:101840005800002010B5044600F074FAA06B28B1CF
:101850005FF0000400F08EFA204610BD0124F9E785
:1018600030B587B0394D67E00498002864DB069CEA
:10187000606910B1201D00F001FA03A800F0D8F84B
:10188000024604980A2857D2DFE800F00505052D26
:10189000334A05052D3394F8240040F0010084F804
:1018A00024000599A069059B01442046FFF7AEFF7F
:1018B00068B3216A2046884794F8240040073BD546
:1018C000002000900598A16900234218194620467F
:1018D00001F0B8F8D8B9502080F31188BFF34F8FCA
:1018E000BFF36F8FFEE714F8240F20F00100207083
:1018F00022E094F8240040F0010084F824000598C8
:10190000A06128B1811813462046FFF77FFF13E03E
:10191000502080F31188BFF34F8FBFF36F8FFEE726
:1019200094F82400810703D4204600F037FA03E03E
:1019300020F0010084F82400002204A9286800F0A7
:101940008FFD002890D107B030BD00005800002066
:101950002DE9FC410F46054600F070FB01A800F0A0
:1019600067F80446019818B100F0A8FFBDE8FC81B3
:10197000254EAFB130690068D0B30027291B3A4625
:10198000306800F08DFA00F099FF0028EED11F4971
:101990004FF080500860BFF34F8FBFF36F8FE5E7C4
:1019A000A542EBD800F08AFFF0682746C068C468FB
:1019B000201D00F063F994F82400410719D5A069AF
:1019C0002B4641193A462046FFF720FFA8B10020D8
:1019D0000346014600902A46204601F033F860B9DC
:1019E000502080F31188BFF34F8FBFF36F8FFEE756
:1019F00007E020F0010084F82400216A204688478F
:101A0000B4E70127BAE700005800002004ED00E029
:101A10000648416B096829B1416BC968C9684968C2
:101A2000816270474FF0FF31FAE700001C00002090
:101A300070B5054600F050FE064E0446B06884427C
:101A400003D200F009F8012000E0002028602046C1
:101A5000B46070BD58000020F8B5194D20E0C06892
:101A6000C4680668201D00F009F9216A20468847ED
:101A700094F82400400713D5A0693044B04206D939
:101A800024616060211DE86800F030F908E0002062
:101A90000346014600903246204600F0D3FF38B19D
:101AA000E86801680029DAD12969C5E90310F8BDA1
:101AB000502080F31188BFF34F8FBFF36F8FFEE785
:101AC0005800002008484068401C4FF0500080F348
:101AD000118804D0BFF34F8FBFF36F8FFEE7BFF3C2
:101AE0004F8FBFF36F8FFEE78C000020074CE0683C
:101AF000016841B1C0680021D0F80000FFF728FF5D
:101B0000FFF7AEFEF3E701210020F7E758000020C1
:101B10002DE9F041044600F00DF994F9455004F127
:101B2000240609E0606A48B1304600F08DFE08B135
:101B300000F006FA6D1E6DB2002DF3DC4FF0FF369B
:101B400084F8456000F016F900F0F4F894F9445078
:101B500004F1100709E0206948B1384600F074FE2E
:101B600008B100F0EDF96D1E6DB2002DF3DC84F8C4
:101B70004460BDE8F04100F0FDB800002DE9F041FF
:101B80000546002700F05AFA324E306808B9FFF7D0
:101B900043FD706905424ED1C5B3083568070ED0C4
:101BA00005F00700C0F108000544680707D0502081
:101BB00080F31188BFF34F8FBFF36F8FFEE72DB314
:101BC0007068854237D82348183001460C6801E018
:101BD00020460C466168A94202D221680029F7D14B
:101BE00031688C4227D00768216801606068083737
:101BF000411B10290FD96019420708D0502080F3EB
:101C00001188BFF34F8FBFF36F8FFEE713E0416082
:101C10006560FFF7D5FD61687068401A7060B26852
:101C2000904200D2B060706901430020C4E9000115
:101C3000F068401CF06000F041FE780707D05020AB
:101C400080F31188BFF34F8FBFF36F8FFEE73846E5
:101C5000BDE8F0816C00002010B5031F4FF08074C8
:101C60001C601B1F21F001011960191F024B0B6042
:101C7000143940380A6010BDC51A0008D0E9013295
:101C800001699A60D0E901235A604A68824201D111
:101C900082684A60002202610868401E0860086885
:101CA00070470000034B036003F15400086080207C
:101CB000106070479C000020044B036003F1540047
:101CC00008604FF48070106070470000F002002040
:101CD00000F108014FF0FF32C0E90112C16001615B
:101CE00000210160704700210161704730B50B6829
:101CF0005A1C02D000F1080202E0026904E0224608
:101D0000546825689D42FAD953684B6099608A608F
:101D1000516008610168491C016030BD42684A6039
:101D200093688B6093685960916008610168491CF1
:101D300001607047502080F31188BFF34F8FBFF3CD
:101D40006F8F0A494868401C486001280CD1084838
:101D5000006810F0FF0F07D0502080F31188BFF308
:101D60004F8FBFF36F8FFEE7704700008C0000209D
:101D700004ED00E00849486828B1401E486001D1E0
:101D800080F311887047502080F31188BFF34F8F84
:101D9000BFF36F8FFEE700008C00002070B50028B5
:101DA0002AD0164DA0F1080460686969084207D17D
:101DB000502080F31188BFF34F8FBFF36F8FFEE782
:101DC00022683AB1502080F31188BFF34F8FBFF3E0
:101DD0006F8FFEE78843606000F030F960686968E3
:101DE000084468602046FFF7EBFC2869401C286126
:101DF000BDE8704000F062BD70BD00006C000020C6
:101E00004FF0E02000210161816105494FF47A72B1
:101E10000968B1FBF2F1491E416107210161704778
:101E20001800002010B5FEF7B3F9114910280ED3A1
:101E300000F1E02090F8F0030A78904207D2502099
:101E400080F31188BFF34F8FBFF36F8FFEE7094810
:101E50000068896800F4E060884207D9502080F368
:101E60001188BFF34F8FBFF36F8FFEE710BD0000E7
:101E70008C0000200CED00E010B5084B002200BFE4
:101E800053F832401CB1521C082AF9D310BD43F854
:101E9000321003EBC201486010BD0000D4070020DF
:101EA00070B515460E460446FFF744FF94F94410FA
:101EB0000020491C01D184F8440094F94510491CC4
:101EC00001D184F84500FFF755FFA06B28B92A46D9
:101ED000314604F1240000F051F82046BDE870407E
:101EE000FFF716BE10B5020014D00F48006B38B1D2
:101EF000502080F31188BFF34F8FBFF36F8FFEE741
:101F000000F09CF800211046FFF756FA00F0D6FCCE
:101F1000002807D105494FF080500860BFF34F8F6C
:101F2000BFF36F8F10BD00001C00002004ED00E027
:101F300002490A6A0260C968416070471C000020BB
:101F400001490120C86170471C00002010B50C46F3
:101F500050B1094909681831FFF7C8FE2046BDE8AD
:101F600010400121FFF728BA502080F31188BFF3F9
:101F70004F8FBFF36F8FFEE71C00002070B5144633
:101F80000D4668B10A4909681831FFF7C7FE0CB160
:101F90004FF0FF3521462846BDE87040FFF70CBAE8
:101FA000502080F31188BFF34F8FBFF36F8FFEE790
:101FB0001C00002030B587B00024039405AA04A9B2
:101FC00003A80494FFF76EFEDDE903010094CDE958
:101FD0000110002315A11748059A00F044FB164D87
:101FE0000028E8621FD000F0FDFC012809D0401C49
:101FF00019D1502080F31188BFF34F8FBFF36F8F3B
:10200000FEE7502080F31188BFF34F8FBFF36F8F2F
:102010004FF0FF30A86201206861EC6007B0BDE8B6
:10202000304000F041B807B030BD000049444C4595
:1020300000000000651600081C0000200248016B2B
:10204000491C0163704700001C0000201448016B0C
:1020500011B10121C16170470021C1610169B1FA6B
:1020600081F1C1F11F0101EB81020E4951F82230CB
:102070006BB101EB820101F108034A6852684A60C2
:102080009A4201D152684A60D1680160704750207D
:1020900080F31188BFF34F8FBFF36F8FFEE700000F
:1020A0001C000020140800201CB526490878019067
:1020B000FF20087008788DF800009DF800009DF85A
:1020C000002000F0F000904207D0502080F31188EB
:1020D000BFF34F8FBFF36F8FFEE79DF800001A4CE0
:1020E00000F0500020700720A06005E09DF800205F
:1020F00052008DF80020401E9DF800201206F5D4F5
:10210000A060032807D0502080F31188BFF34F8FC1
:10211000BFF36F8FFEE74FF44070A0600198087026
:102120000A48016841F470010160016841F07041A2
:102130000160FFF765FE00206060FDF7F3FF0020FF
:102140001CBD000000E400E08C00002020ED00E059
:1021500038B5049D18B153B1CAB181B120E0502007
:1021600080F31188BFF34F8FBFF36F8FFEE75020CE
:1021700080F31188BFF34F8FBFF36F8FFEE75020BE
:1021800080F31188BFF34F8FBFF36F8FFEE739B134
:10219000502080F31188BFF34F8FBFF36F8FFEE79E
:1021A00048241C46012384F846302B460094FFF750
:1021B00089FA204638BD000070B50D46040025D0D0
:1021C000FFF7B8FDD4E90F20216802FB0011A160E0
:1021D0000021A163216861600A46D4E90F01401E15
:1021E00000FB0121E16021464FF0FF3001F8440F70
:1021F000487004F110008DB1FFF76AFD04F124006E
:10220000FFF766FDFFF7B6FD012070BD502080F39B
:102210001188BFF34F8FBFF36F8FFEE7216900294D
:10222000F0D000F011FB0028ECD004494FF08050B2
:102230000860BFF34F8FBFF36F8FE3E704ED00E05B
:102240002DE9FF4782B01D468A464FF00008040082
:1022500003D0BAF1000F08D011E0502080F31188AC
:10226000BFF34F8FBFF36F8FFEE7206C38B1502064
:1022700080F31188BFF34F8FBFF36F8FFEE7022DFE
:102280000AD1E06B012807D0502080F31188BFF3FA
:102290004F8FBFF36F8FFEE700F010FA3F4F4FF004
:1022A00000094FF0805648B9049838B1502080F3A7
:1022B0001188BFF34F8FBFF36F8FFEE7FFF73AFD33
:1022C000A06BE16B884207D3022D05D00498D0B1F2
:1022D000B8F1000F1AD01EE02A4651462046FFF7FB
:1022E0004AF9616A19B104F1240000F0ADFA20B195
:1022F0003E60BFF34F8FBFF36F8FFFF73BFD0120B1
:1023000006B0BDE8F087FFF735FD22E06846FFF72D
:102310000FFE4FF00108FFF72DFDFFF78FFEFFF7CF
:1023200009FD94F94400401C01D184F8449094F9CB
:102330004500401C01D184F84590FFF71BFD04A91E
:10234000684600F029F930B12046FFF7E1FB00F0C4
:10235000B5FA0020D4E7FFF7EDFCA06BE16B8842F3
:1023600013D1FFF707FD04F110000499FFF7EEFD0C
:102370002046FFF7CDFB00F0A1FA00289ED13E6079
:10238000BFF34F8FBFF36F8F98E7FFF7F3FC204643
:10239000FFF7BEFB00F092FA90E7000004ED00E0CA
:1023A0002DE9F0471F4690468946040003D0B9F155
:1023B000000F08D011E0502080F31188BFF34F8F39
:1023C000BFF36F8FFEE7206C38B1502080F3118887
:1023D000BFF34F8FBFF36F8FFEE7022F0AD1E06B81
:1023E000012807D0502080F31188BFF34F8FBFF32F
:1023F0006F8FFEE7FFF716FD5020EFF3118680F395
:102400001188BFF34F8FBFF36F8FA06BE16B8842D2
:1024100006D3022F04D0002086F31188BDE8F08790
:1024200094F94550A06B3A4649462046FFF7A3F879
:10243000681C04D06D1C84F845500120ECE7606AEC
:102440000028FAD004F1240000F0FEF90028F4D0AE
:10245000B8F1000FF1D00121C8F80010EDE700003D
:102460002DE9F747002683B08A46040003D0BAF16D
:10247000000F08D011E0502080F31188BFF34F8F78
:10248000BFF36F8FFEE7206C38B1502080F31188C6
:10249000BFF34F8FBFF36F8FFEE700F00FF9DFF848
:1024A000F4804FF000094FF0805748B9059838B1D3
:1024B000502080F31188BFF34F8FBFF36F8FFEE77B
:1024C000FFF738FCA56BC5B151462046FFF740F831
:1024D0006D1EA563206950B104F1100000F0B4F93D
:1024E00028B1C8F80070BFF34F8FBFF36F8FFFF7AD
:1024F00041FC012006B0BDE8F087059808B11EB187
:1025000006E0FFF737FC27E06846FFF711FD0126DC
:10251000FFF730FCFFF792FDFFF70CFC94F9440045
:10252000401C01D184F8449094F94500401C01D12D
:1025300084F84590FFF71EFC05A9684600F02CF8CA
:10254000002820460AD0FFF7E3FA00F0B7F920464A
:10255000FFF778F90028B3D00020CBE7FFF772F936
:1025600090B104F124000599FFF7F0FC2046FFF735
:10257000CFFA00F0A3F90028A2D1C8F80070BFF389
:102580004F8FBFF36F8F9BE72046FFF7C1FA00F034
:1025900095F995E704ED00E02DE9F0410C460500C2
:1025A00011D0C4B1FFF7C6FB174BDA686E6820681C
:1025B000911B471C17D02F681B6A9F4219D0964267
:1025C00017D8012410E0502080F31188BFF34F8FFB
:1025D000BFF36F8FFEE7502080F31188BFF34F8F5A
:1025E000BFF36F8FFEE70024FFF7C4FB2046BDE872
:1025F000F081884205D9401A20602846FFF798FCF0
:10260000F1E700202060DCE71C0000202DE9FF5FDF
:102610008346DDE90E87994616468A469000FFF705
:10262000ADFA05001CD05420FFF7A8FA040014D01E
:102630000020256384F85100CDE90240CDE90087F0
:102640004B46324651465846FFF747F82046FEF7BC
:10265000EBFE012004B0BDE8F09F2846FFF79EFB8B
:102660004FF0FF30F6E7F0B585B0DDE90B640A9D69
:10267000A6B1DCB1542700972663022684F8516086
:10268000002604AFCDE90246CDE90057FFF725F853
:102690002046FEF7C9FE049805B0F0BD502080F337
:1026A0001188BFF34F8FBFF36F8FFEE7502080F389
:1026B0001188BFF34F8FBFF36F8FFEE70548416965
:1026C00019B1006B18B1002070470120704702203B
:1026D000704700001C0000200148C06870470000DF
:1026E0001C0000202DE9F0412F4C0026206B28B162
:1026F000A069401CA0613046BDE8F081E5686D1C12
:10270000E56013D1606B006838B1502080F3118808
:10271000BFF34F8FBFF36F8FFEE7606BA16B6163F9
:10272000A063206A401C2062FFF772F9A06ADFF8FC
:102730007C80854209D3606B0068A0B1606BC06883
:10274000C7687868854211D2A0622068C06A00EB31
:10275000800158F82100012800D90126E0690028ED
:10276000C9D00126C7E74FF0FF30EDE7381DFFF76E
:1027700085FAB86A18B107F11800FFF77FFAF96A0D
:102780000120226988401043206101EB810108EBA0
:102790008100391DFFF7C2FAF86A2168C96A8842C8
:1027A000C9D30126C7E700001C0000201408002040
:1027B00070B504004FF0000140D0214D28688442DC
:1027C00007D0502080F31188BFF34F8FBFF36F8F76
:1027D000FEE7A06C38B1401EA064636CE26A9A42C6
:1027E0002CD040B12AE0502080F31188BFF34F8FE6
:1027F000BFF36F8FFEE7201DFFF740FA114A01215A
:1028000050B9E06A00EB800352F8233023B92B69FA
:1028100001FA00F083432B61606CE062C0F10700B5
:10282000A061E06A2B6981401943296100EB8000B7
:1028300002EB8000211DFFF771FA0121084670BDEF
:102840001C000020140800202DE9F041C068C46875
:10285000ACB104F118000746FFF710FA154D286BCC
:102860000126A0B139461448FFF758FAE06A2968F2
:10287000C96A88421CD90120EE61BDE8F081502070
:1028800080F31188BFF34F8FBFF36F8FFEE7201DDA
:10289000FFF7F4F9E16A2A6906FA01F010432861AA
:1028A00001EB81000449B43901EB8000211DDBE715
:1028B0000020E2E71C000020C80800202DE9F047B6
:1028C0002C4D00242746286B38B1FFF733FA286BCC
:1028D000401E2863286B40B146E0502080F31188E9
:1028E000BFF34F8FBFF36F8FFEE7A968224E012021
:1028F000D1B3A6F1B40980463068E8B1F068C46885
:1029000004F11800FFF7BAF9201DFFF7B7F9E06AE4
:102910002A6908FA00F11143296100EB800109EBF3
:102920008100211DFFF7FAF9E06A2968C96A884227
:10293000E2D3C5F81C80DFE70CB1FFF769F8AC699A
:1029400044B14646FFF7CEFE00B1EE61641EF9D1F8
:102950000020A861E86938B10849012738070860F4
:10296000BFF34F8FBFF36F8FFFF704FA3846BDE810
:10297000F08700001C000020C808002004ED00E0E3
:102980002DE9FC4781461E461746884628200A9DA9
:10299000FFF7F4F804000AD0002084F82400CDE901
:1029A000005433463A4641464846FEF7E2FE20468A
:1029B000BDE8FC877CB52826DDE90654009644B1C5
:1029C000022684F82460CDE90054FEF7D2FE2046AA
:1029D0007CBD502080F31188BFF34F8FBFF36F8F02
:1029E000FEE7000010B586B0FEF786FD114C2068AA
:1029F000B8B100200390049005AA04A903A8FFF72A
:102A00005BF9DDE9032102208DE8070000230AA11C
:102A10000B48059AFFF727FE606010B106B0012051
:102A200010BD502080F31188BFF34F8FBFF36F8F1D
:102A3000FEE7000058000020546D722053766300BA
:102A4000ED1A0008FEB51E4613460200089D4FF021
:102A5000000014D0124C2768002F0FD0CDE90013CE
:102A60000292062915DAFFF729FE02284FF000032B
:102A70000DD0002269462068FFF7E2FBFEBD502022
:102A800080F31188BFF34F8FBFF36F8FFEE72A46A5
:102A9000F0E70023324669463846FFF781FCFEBD69
:102AA000580000202D02000800000000410200082C
:102AB00000000000FC2A0008310F000800000000A0
:102AC0000000000080000000000000000000000086
:102AD000010202030405060708090A0B0C0D0E0F7C
:102AE00010100000000000000000010203040607AF
:102AF000080900000000010203040000646566612B
:102B0000756C745461736B00282B00080000002062
:102B10009C00000008120008C42B00089C00002044
:102B20005419000018120008000000000000000006
:102B30000000000001000000100000000000000084
:102B400000127A00000000000000000000000000F9
:102B50000000000000000000000000000000000075
:102B60000000000000000000000000000000000065
:102B70000000000000000000000000000000000055
:102B80000000000000000000000000000000000045
:102B90000000000000000000000000000000000035
:102BA0000000000000000000000000000000000025
:102BB0000000000000000000AAAAAAAA000000006D
:042BC0000000000011
:04000005080000ED02
:00000001FF
