:020000040800F2
:100000005814002099010008A30E0008B90D00083B
:10001000A10E000829020008A51000080000000039
:1000200000000000000000000000000001010008C6
:100030002B0200080000000045010008E50E000842
:10004000B3010008B3010008B3010008B3010008C0
:10005000B3010008B3010008B3010008B3010008B0
:10006000B3010008B3010008B3010008B3010008A0
:10007000B3010008B3010008B3010008B301000890
:10008000B3010008B3010008B3010008B301000880
:10009000B3010008B3010008B3010008B301000870
:1000A000B3010008B3010008B3010008B301000860
:1000B000690F0008B3010008B3010008B30100088C
:1000C000B3010008B3010008B3010008B301000840
:1000D000B3010008B3010008B3010008B301000830
:1000E000B3010008B3010008B3010008DFF80CD029
:1000F00000F088F80048004731110008581400202B
:10010000224B19680868B0E8F00F80F30988BFF344
:100110006F8F4FF0000080F311884EF00D0E704786
:100120000000000006480068006880F3088862B696
:1001300061B6BFF34F8FBFF36F8F00DF00BF00BF0B
:1001400008ED00E0EFF30980BFF36F8F0F4B1A68E3
:1001500020E9F00F106008B54FF0500080F31188CF
:10016000BFF34F8FBFF36F8F01F086FB4FF000009E
:1001700080F31188BDE8084019680868B0E8F00FFE
:1001800080F30988BFF36F8F704700BF180000200D
:10019000EFF3058070470000064880470648004797
:1001A000FEE7FEE7FEE7FEE7FEE7FEE7FEE7FEE727
:1001B000FEE7FEE7670F0008ED00000840EA0103D4
:1001C0009B0703D009E008C9121F08C0042AFAD20D
:1001D00003E011F8013B00F8013B521EF9D27047D1
:1001E000D2B201E000F8012B491EFBD27047002279
:1001F000F6E710B513460A4604461946FFF7F0FF26
:10020000204610BD064C074D06E0E06840F00103B3
:1002100094E8070098471034AC42F6D3FFF76AFF22
:10022000381C0008581C0008FEE7704772B6FEE74D
:100230002DE9F84FDFF8B8910024A9F1040B23460B
:100240000F2709F1040AABF1040EC9E00125A5400E
:100250002A40AA427DD1674ED1F804C0ACEB060813
:10026000B44532D014DCBCF1030F3AD009DCBCF148
:10027000000F2AD0BCF1010F1CD0BCF1020F31D10C
:100280001DE0BCF1110F17D0BCF1120F2AD119E0FB
:10029000B8F5881F19D006DCB8F5803F15D0B8F541
:1002A000801F1FD111E0B8F5001F0ED0B8F5041F54
:1002B00018D10AE0CB6815E0CB681B1D12E0CB68B3
:1002C00008330FE0CB680C330CE08B682BB1012BAB
:1002D0004FF0080303D0456104E0042302E0056108
:1002E00000E00023FF2A01D8064601E000F10406E1
:1002F0004FEA840501D9A5F12005D6F8008007FA58
:1003000005FC28EA0C0803FA05F548EA0508C6F8D2
:1003100000804D68ED0062D5374DAE6946F00106AC
:10032000AE61AD6924F0030605F001050095334D7B
:1003300006EB050CDCF80850A607360F07FA06F89E
:1003400025EA0805DFF8B880404503D14FF00008E2
:1003500017E044E0DFF8AC80404502D14FF00108DF
:100360000FE0DFF8A480404502D14FF0020808E01A
:10037000DFF89880404502D14FF0030801E04FF0CC
:10038000040808FA06F848EA0508CCF808804D6821
:10039000D9F80060ED024D4601D5164300E09643C2
:1003A0002E604D68DAF80060AD02554601D516435F
:1003B00000E096432E604D68DBF80060AD035D46BB
:1003C00001D5164300E096432E604D68DEF80060CC
:1003D000ED03754601D5164300E096432E60641C7C
:1003E0000D682A46E5407FF431AFBDE8F88F000084
:1003F00008040140000011100010024000000140FC
:1004000000080140000C01400010014000140140B0
:10041000C26821EA02030A4043EA024101617047CF
:100420000AB1016170470904FBE7000001488068D8
:1004300070470000080000200248816802781144DB
:100440008160704708000020074810B5016841F03E
:1004500010010160032000F0A7F80F2000F006F85B
:1004600000F050F8002010BD0020024030B50546D5
:10047000204887B0C16941F00101C161C06906A986
:1004800000F00100009001A800F036F90498B8B11E
:1004900000F052F9400018494FF08042B0FBF1F1F2
:1004A0001648491E0260416040F2E7320021C0E96F
:1004B00003218160816100F017FB040003D015E087
:1004C00000F03AF9E7E70D4800F03CFB04000DD1DD
:1004D0001C2000F03BF8102D07D2002229461C20DA
:1004E00000F042F80648056000E0012407B020460D
:1004F00030BD00000010024040420F0020030020E9
:100500000C0000200F4808B5816941F001018161AC
:10051000816901F001010091C16941F08051C1611F
:10052000C069002200F0805000900F21901E00F062
:100530001BF80548416821F0E06141F0007141601D
:1005400008BD00000010024000000140002809DB47
:1005500000F01F02012191404009800000F1E020DD
:10056000C0F8001170470000F0B40E4B1B680C4639
:10057000C3F30223C3F10705042D00D90425191D77
:10058000072901D2002300E0DB1E012606FA05F14F
:10059000491E214099409E40761E16403143F0BCD2
:1005A00000F08ABD0CED00E0064900F00702086883
:1005B0004FF6FF03184040EA0220034A1043086048
:1005C000704700000CED00E00000FA052DE9F0474F
:1005D0000F46050061D0434E306800F00700B84276
:1005E00009D2306820F0070038433060306800F0EE
:1005F0000700B84251D128683B4C810712D540070B
:1006000003D5606840F4E06060602878000703D597
:10061000606840F4605060606068A96820F0F00095
:10062000084360602878C00728D06868012810D087
:100630002168022810D0890700292EDA616821F08C
:10064000030101436160FFF7F1FE804641F2883902
:100650000DE021688903EFE78901EDE7FFF7E6FE8A
:10066000A0EB0801494502D90320BDE8F087606886
:10067000696800F00C00B0EB810FEFD1306800F03A
:100680000700B8420BD9306820F0070038433060CB
:10069000306800F00700B84201D00120E5E7287873
:1006A000400705D56068E96820F4E06008436060B1
:1006B0002878000706D56068296920F4605040EA70
:1006C000C100606000F058F86168084AC1F3031186
:1006D000515CC8400649086006480068FFF7C6FE3E
:1006E0000020C2E70020024000100240061C000863
:1006F000140000200C0000200F2202600C4A5368F6
:1007000003F003034360536803F0F003836053680E
:1007100003F4E063C36052684FF4E06303EAD2027B
:1007200002610448006800F007000860704700009C
:100730000010024000200240044805490068496852
:10074000044AC1F30221515CC840704714000020E4
:1007500000100240161C000804480549006849685A
:10076000044AC1F3C221515CC84070471400002004
:1007700000100240161C00080E4A51680E4801F095
:100780000C03042B11D0082B0FD10C48C1F3834369
:10079000C903C05C0AD55168084AC1F34041921EA2
:1007A000515C054A5043B0FBF1F07047044948439F
:1007B000704700000010024000127A00F61B00088B
:1007C00000093D002DE9F84F040070D02078C04D9D
:1007D000C00749D06868C0F38100012807D0686865
:1007E000C0F38100022809D16868C00306D52868D3
:1007F000800339D560680028E7D035E06068B0F53F
:10080000803F0BD010B1B0F5A02F11D0286820F494
:1008100080302860286820F4802002E0286840F4B6
:1008200080302860606890B1FFF700FE06460AE05D
:10083000286840F480202860F0E700BFFFF7F6FD4D
:10084000801B642873D828688003F7D50CE0FFF775
:10085000EDFD064605E000BFFFF7E8FD801B6428BC
:10086000F0D828688003F7D420789A4E80074FF09C
:1008700001094FF0000839D5686810F00C0F07D057
:100880006868C0F38100022809D16868C00306D4F3
:100890002868800714D52069012808D110E0206954
:1008A000B0B1C6F80090FFF7C1FD074605E00AE1C8
:1008B000FFF7BCFDC01B0228C4D828688007F7D505
:1008C0002868616920F0F80040EAC10028600DE066
:1008D000C6F80080FFF7AAFD074604E0FFF7A6FD73
:1008E000C01B022823D828688007F7D42078000787
:1008F0002CD57948A169D9B1C0F80090FFF796FDD1
:10090000074604E0FFF792FDC01B02280FD8686A73
:100910008007F7D571484FF4FA510068B0FBF1F049
:10092000009000BF0098411E0091FAD20EE080E0D6
:10093000C0F80080FFF77AFD074604E0FFF776FD78
:10094000C01B022875D8686A8007F7D42078400752
:1009500060D5E8690027C00008D4E86940F08050FD
:10096000E861E869012700F0805000905C48016868
:10097000C90513D40168834641F480710160FFF713
:1009800055FD824606E000BFFFF750FDA0EB0A00D0
:1009900064284ED8DBF80000C005F5D5E0680128D2
:1009A0000AD008B1052813D0286A20F00100286277
:1009B000286A20F0040002E0286A40F00100286262
:1009C000E06841F2883B98B1FFF730FD82460BE0CA
:1009D000286A40F004002862EEE700BFFFF726FD1A
:1009E000A0EB0A0159455AD8286A8007F6D50CE0D1
:1009F000FFF71CFD824605E0FFF718FDA0EB0A019A
:100A000059454CD8286A8007F6D41FB1E86920F010
:100A10008050E861E06988B36968C1F38101022907
:100A200044D00228C6F8608004D0FFF7FFFC0446DB
:100A300038E034E0FFF7FAFC074604E0FFF7F6FC85
:100A4000C01B02282BD828688001F7D4206AB0F593
:100A5000803F05D16868A16820F4003008436860D1
:100A6000D4E908010843696821F4741108436860F7
:100A7000C6F86090FFF7DAFC044606E025E000BF08
:100A8000FFF7D4FC001B022809D828688001F7D59D
:100A90001BE000BFFFF7CAFC001B022802D903209D
:100AA000BDE8F88F28688001F4D40EE00128F7D063
:100AB0006868226A00F48031914204D1616A00F4CE
:100AC0007010884201D00120EAE70020E8E700002A
:100AD0000010024000004242800442421400002004
:100AE000007000407047704710B5040003D094F8C0
:100AF0003D0010B107E0012010BD002084F83C004B
:100B0000204600F01EF8022084F83D00211D2068D8
:100B100000F030FA012084F8460084F83E0084F8A2
:100B20003F0084F8400084F8410084F8420084F8D3
:100B3000430084F8440084F8450084F83D00002018
:100B400010BD704790F83D10012901D00120704779
:100B5000022180F83D100168CA6842F00102CA60B3
:100B600000680B49884208D0B0F1804F05D0094990
:100B7000884202D00849884204D1816801F0070107
:100B8000062903D0016841F001010160002070478F
:100B9000002C0140000400400008004070472DE98F
:100BA000F04104460068C66805694FF00007A907D0
:100BB00013D5B10711D5F91E0161012020772068F6
:100BC00080698007204602D0FFF7E8FF04E000F0CC
:100BD0007EF8204600F07CF82777680716D5700766
:100BE00014D521686FF00400086102202077206886
:100BF000806910F4407F204602D0FFF7CFFF04E069
:100C000000F065F8204600F063F82777280715D52F
:100C1000300713D521686FF00800086104202077A1
:100C20002068C0698007204602D0FFF7B7FF04E0C4
:100C300000F04DF8204600F04BF82777E80616D56F
:100C4000F00614D521686FF01000086108202077A5
:100C50002068C06910F4407F204602D0FFF79EFF55
:100C600004E000F034F8204600F032F82777E80777
:100C700008D0F00706D021686FF001000861204617
:100C800000F027F8280608D5300606D521686FF051
:100C9000800008612046FFF725FF680608D570062A
:100CA00006D521686FF040000861204600F018F872
:100CB000A8060AD5B00608D521686FF020000861A3
:100CC0002046BDE8F041FFF70EBFBDE8F081704758
:100CD00070470068B0F1804F01D1FFF7ADBB70479E
:100CE000704770B5040004D094F84100002510B19D
:100CF00006E0012070BD84F84050204600F024F842
:100D0000242084F841002068C16821F40051C160AA
:100D1000204600F06BF92068016921F490410161DF
:100D20002068416921F02A0141612068C16841F4CD
:100D30000051C1606564202084F8410084F84200BD
:100D40006563002070BD000030B585B000240094BC
:100D500001940294039400681449884224D11448F1
:100D6000816941F480418161816901F4804104918C
:100D7000816941F00401816180690E4D00F0040039
:100D800004904FF400700090022001900320039023
:100D900069462846FFF74CFA2815CDE90004694654
:100DA00028460294FFF744FA05B030BD00380140F0
:100DB0000010024000080140FEE7000010B58EB0B0
:100DC0001C220B496846FFF7F9F90021684600F03C
:100DD000D7F9084C06491C2220601C3107A8FFF7F0
:100DE000EDF9002107A800F0CBF960600EB010BD4E
:100DF000BC1B00080000002070B586B00024184815
:100E00000094019402940394816941F0200181616E
:100E1000816901F020010491816941F0040181613F
:100E2000816901F004010491816941F00801816147
:100E300080690C4E00F008004FF4407504900022C9
:100E400029463046FFF7ECFA01200095CDE9010470
:100E50000220039069463046FFF7EAF906B070BDFC
:100E600000100240000C01400C4810B50A49016016
:100E70004FF4E1314160002181600C22C160C0E982
:100E800004128161C161FFF72CFF002803D0BDE887
:100E90001040FFF7CBB910BD00380140D802002048
:100EA000FEE7FEE7064D4FF480744FF4FA762146D4
:100EB0002846FFF7ADFA304600F056F9F7E7000094
:100EC000000C0140064D4FF400744FF47A76214631
:100ED0002846FFF79DFA304600F046F9F7E7000094
:100EE000000C014010B5502080F31188BFF34F8FE4
:100EF000BFF36F8F00F09AFD18B104494FF0805096
:100F00000860002080F3118810BD000004ED00E0AF
:100F100030B58FB028216846FFF769F914210AA877
:100F2000FFF765F90121080400240491CDE90010C0
:100F3000CDE908040294022507956846FFF742FCB4
:100F400008B172B6FEE70F200A90CDE90B540D945C
:100F500000210AA80E94FFF739FB002801D072B6D1
:100F6000FEE70FB030BD70470148FFF718BE000024
:100F700020030020F0B50268194B1A4C1A4D4FF0AF
:100F80008047984205D0B84203D0A04201D0A84281
:100F900003D122F070064A683243984205D0B84225
:100FA00003D0A04201D0A84203D122F44074CA6801
:100FB00022434C6922F08002224302608A68C262A6
:100FC0000A688262984201D1096901630121416185
:100FD0000169C90703D0016921F001010161F0BD78
:100FE000002C0140000400400008004070B5044699
:100FF00000680169E26821F44051114301612169EF
:10100000A0680843616908432168CA6841F20C631B
:101010009A430243CA6020684169A26921F4407181
:10102000114341611E492068884202D1FFF794FBB9
:1010300001E0FFF781FB00EBC00101EB00126068EB
:1010400064218000B2FBF0F3B3FBF1F36FF01806FC
:101050007343B2FBF0F5B2FBF0F605EB83053223E8
:1010600003EB0515B5FBF1F5B6FBF1F605F0F00560
:1010700005EB0615B2FBF0F6B2FBF0F0B0FBF1F0B9
:101080006FF01802504306EB800003EB0010B0FB3A
:10109000F1F0216800F00F002844886070BD000066
:1010A00000380140FEE70000014A024900F023B881
:1010B00019110008800000200907090E002804DB30
:1010C00000F1E02080F80014704700F00F0000F1FC
:1010D000E02080F8141D704702E008C8121F08C104
:1010E000002AFAD170477047002001E001C1121FA9
:1010F000002AFBD170472DE9F04116460F46044601
:10110000002503E03946B047641C6D1C2078002898
:10111000F8D12846BDE8F08104490A685206FCD59A
:10112000024AC1B2121D1160704700000038014030
:10113000FFF78AF9FFF7ECFEFFF75EFEFFF794FE7C
:1011400003A0FFF7B1FFFFF739FE00F014F8FEE748
:1011500068656C6C6F2077616E6700000146002047
:10116000842900D0C81C704710B500B9012000F0D8
:101170001FFB002010BD10B500F040FB002010BD8B
:101180007FB50D4604464169B0F9080081B1A169F7
:1011900071B1FFF7E3FFD4E905128DE80700D4E948
:1011A00000102B46226900F016FC039004B070BDBD
:1011B000FFF7D4FF03A9CDE90001208A2B4682B2B4
:1011C000D4E9001000F0DAFB012801D00020EDE79F
:1011D0000398EBE72DE9F041184C0F460546E66809
:1011E0002068001D00F01CFA38B9206890F82C1017
:1011F00001208840216981432161681C07D137B1F2
:101200002168BDE8F0410E48091D00F04DBA206884
:101210003544B5424560216805D2A06BBDE8F04178
:10122000091D00F029BA606B091D00F025FAA06ABB
:10123000854200D2A562BDE8F081000018000020C0
:10124000440400202DE9F041054600F039FA2E4C07
:10125000A068401CA06020682C4F10B1606940B3AA
:101260002DE02560A068012829D1002606EB860024
:1012700007EB800000F0F2F9761C072EF6D3234826
:101280008C3000F0EBF92148A03000F0E7F91F485E
:10129000B43000F0E3F91D48C83000F0DFF91B4816
:1012A000DC3000F0DBF919488C3060631430A06347
:1012B00005E02068E96AC06A884200D82560606A53
:1012C000401C6062E96A0120226988401043206165
:1012D00001EB810007EB8000291D00F0E5F900F02B
:1012E0000FFA606900280CD02068E96AC06A884259
:1012F00007D207494FF080500860BFF34F8FBFF30C
:101300006F8FBDE8F0810000180000206803002006
:1013100004ED00E010B5044690F8510058B10128E2
:101320000CD002280FD0502080F31188BFF34F8FCC
:10133000BFF36F8FFEE7206B00F0F6F92046BDE8A3
:10134000104000F0F1B910BD10484FF44061420761
:1013500006D0C01D0D4920F00700411AC1F54061BB
:101360000B4A00230144C2E900030839183A21F06E
:10137000070111604B600B600B1AC0E9001393600A
:101380004FF0004053605061704700005804002047
:101390006C000020144E154CA6F1C8074FF0805881
:1013A000DFF84C9012E000BF00F08AF9F068C568E1
:1013B000281D00F035F9A068401EA0606068401E3E
:1013C000606000F09DF92846FFF7A4FF60680028E0
:1013D000EAD138680128F9D9C9F80080BFF34F8FE6
:1013E000BFF36F8FF2E700003004002018000020E8
:1013F00004ED00E02DE9F0479A46DDE909848146D5
:101400006FF00303206B03EB82021044089E20F070
:101410000707780707D0502080F31188BFF34F8F5C
:10142000BFF36F8FFEE7002561B1002023180A5C2F
:1014300083F834200A5C12B1401C1028F6D384F8DB
:10144000435001E084F83450072E00D30626E662AC
:10145000C4E91165201D00F00CF904F1180000F03A
:1014600008F92461C6F107006462A061E56484F8AC
:10147000505052464946384600F0C0F82060B8F156
:10148000000F01D0C8F80040BDE8F08730B5114921
:1014900000E011460A688242FBD34B685C18844224
:1014A00003D1406818444860084643681C189442B9
:1014B00009D1084C183C2468A24209D052681A4449
:1014C00042600A6812680260814200D0086030BD44
:1014D0000460F9E76C0000200648416B096829B1F7
:1014E000416BC968C9684968816270474FF0FF3134
:1014F000FAE700001800002008484068401C4FF040
:10150000500080F3118804D0BFF34F8FBFF36F8F6B
:10151000FEE7BFF34F8FBFF36F8FFEE7740000202D
:101520002DE9F0410546002700F09EF9324E306863
:1015300008B9FFF709FF706905424ED1C5B30835F8
:1015400068070ED005F00700C0F1080005446807E1
:1015500007D0502080F31188BFF34F8FBFF36F8FF8
:10156000FEE72DB37068854237D82348183001460E
:101570000C6801E020460C466168A94202D221684D
:101580000029F7D131688C4227D0076821680160B3
:1015900060680837411B10290FD96019420708D02D
:1015A000502080F31188BFF34F8FBFF36F8FFEE79A
:1015B00013E041606560FFF769FF61687068401A79
:1015C0007060B268904200D2B06070690143002040
:1015D000C4E90001F068401CF06000F08DFA780763
:1015E00007D0502080F31188BFF34F8FBFF36F8F68
:1015F000FEE73846BDE8F0815400002010B5031F17
:101600004FF080741C601B1F21F001011960191F2D
:10161000024B0B60143940380A6010BDF914000801
:10162000D0E9013201699A60D0E901235A604A6821
:10163000824201D182684A60002202610868401E2D
:101640000860086870470000034B036003F1540012
:1016500008608020106070478400002000F10801BD
:101660004FF0FF32C0E90112C16001610021016049
:10167000704700210161704730B50B685A1C02D0D9
:1016800000F1080202E0026904E02246546825687D
:101690009D42FAD953684B6099608A605160086135
:1016A0000168491C016030BD42684A6093688B60E4
:1016B00093685960916008610168491C0160704736
:1016C000502080F31188BFF34F8FBFF36F8F0A490B
:1016D0004868401C486001280CD10848006810F098
:1016E000FF0F07D0502080F31188BFF34F8FBFF357
:1016F0006F8FFEE7704700007400002004ED00E0EB
:101700000849486828B1401E486001D180F311881B
:101710007047502080F31188BFF34F8FBFF36F8F56
:10172000FEE700007400002070B500282AD0164D96
:10173000A0F1080460686969084207D1502080F36D
:101740001188BFF34F8FBFF36F8FFEE722683AB166
:10175000502080F31188BFF34F8FBFF36F8FFEE7E8
:101760008843606000F080F86068696808446860D9
:101770002046FFF78BFE2869401C2861BDE87040B9
:1017800000F0BAB970BD0000540000204FF0E02016
:1017900000210161816105494FF47A720968B1FB4A
:1017A000F2F1491E416107210161704714000020D8
:1017B00010B5020014D00F48006B38B1502080F3F0
:1017C0001188BFF34F8FBFF36F8FFEE700F04CF827
:1017D00000211046FFF7FEFC00F08EF9002807D12B
:1017E00005494FF080500860BFF34F8FBFF36F8FF4
:1017F00010BD00001800002004ED00E010B586B018
:101800000024039405AA04A903A80494FFF71CFF6D
:10181000DDE903010094CDE9011000230EA1104879
:10182000059A00F0D8F80F490028C86211D050205E
:1018300080F31188BFF34F8FBFF36F8F4FF0FF30EE
:10184000886201204861CC6006B0BDE8104000F01D
:1018500041B806B010BD000049444C4500000000EE
:1018600095130008180000200248016B491C016311
:1018700070470000180000201448016B11B10121CD
:10188000C16170470021C1610169B1FA81F1C1F103
:101890001F0101EB81020E4951F822306BB101EBBF
:1018A000820101F108034A6852684A609A4201D1F4
:1018B00052684A60D16801607047502080F31188F7
:1018C000BFF34F8FBFF36F8FFEE7000018000020BB
:1018D000680300201CB5264908780190FF20087095
:1018E00008788DF800009DF800009DF8002000F0B9
:1018F000F000904207D0502080F31188BFF34F8F43
:10190000BFF36F8FFEE79DF800001A4C00F0500007
:1019100020700720A06005E09DF8002052008DF89F
:101920000020401E9DF800201206F5D4A060032878
:1019300007D0502080F31188BFF34F8FBFF36F8F14
:10194000FEE74FF44070A060019808700A480168F3
:1019500041F470010160016841F070410160FFF7DE
:1019600015FF00206060FEF7DDFB00201CBD0000BD
:1019700000E400E07400002020ED00E02DE9FF5FAE
:101980008346DDE90E87994616468A469000FFF7A2
:10199000C7FD05001CD05420FFF7C2FD040014D081
:1019A0000020256384F85100CDE90240CDE900878D
:1019B0004B46324651465846FFF71CFD2046FFF77E
:1019C00041FC012004B0BDE8F09F2846FFF7ACFEC3
:1019D0004FF0FF30F6E7F0B585B0DDE90B640A9D06
:1019E000A6B1DCB1542700972663022684F8516023
:1019F000002604AFCDE90246CDE90057FFF7FAFC17
:101A00002046FFF71FFC049805B0F0BD502080F37E
:101A10001188BFF34F8FBFF36F8FFEE7502080F325
:101A20001188BFF34F8FBFF36F8FFEE72DE9F041B1
:101A30002F4C0026206B28B1A069401CA0613046C5
:101A4000BDE8F081E5686D1CE56013D1606B00684E
:101A500038B1502080F31188BFF34F8FBFF36F8FE1
:101A6000FEE7606BA16B6163A063206A401C20628B
:101A7000FFF732FDA06ADFF87C80854209D3606BF6
:101A80000068A0B1606BC068C7687868854211D2F1
:101A9000A0622068C06A00EB800158F8210001288C
:101AA00000D90126E0690028C9D00126C7E74FF018
:101AB000FF30EDE7381DFFF7B3FDB86A18B107F145
:101AC0001800FFF7ADFDF96A012022698840104334
:101AD000206101EB810108EB8100391DFFF7E4FD76
:101AE000F86A2168C96A8842C9D30126C7E700009D
:101AF00018000020680300202DE9F0472C4D002439
:101B00002746286B38B1FFF7DBFD286B401E2863A2
:101B1000286B40B146E0502080F31188BFF34F8F0F
:101B2000BFF36F8FFEE7A968224E0120D1B3A6F163
:101B3000B40980463068E8B1F068C46804F1180060
:101B4000FFF76EFD201DFFF76BFDE06A2A6908FABA
:101B500000F11143296100EB800109EB8100211D97
:101B6000FFF7A2FDE06A2968C96A8842E2D3C5F896
:101B70001C80DFE70CB1FFF7AFFCAC6944B146460F
:101B8000FFF754FF00B1EE61641EF9D10020A86197
:101B9000E86938B10849012738070860BFF34F8F5B
:101BA000BFF36F8FFFF7ACFD3846BDE8F08700004C
:101BB000180000201C04002004ED00E0201C000898
:101BC000A50E0008000000000000000080000000DA
:101BD00000000000000000002C1C0008C50E0008DA
:101BE0000000000000000000800000000000000075
:101BF00000000000010202030405060708090A0BA1
:101C00000C0D0E0F1010000000000000000001027B
:101C10000304060708090000000001020304000095
:101C20007461736B4C454431000000007461736B48
:101C30004C45443200000000581C00080000002001
:101C400084000000D8100008DC1C0008840000207C
:101C5000D4130000E810000800000000000000009D
:101C600001000000100000000000000000127A00D7
:101C70000000000000000000000000000000000064
:101C80000000000000000000000000000000000054
:101C90000000000000000000000000000000000044
:101CA0000000000000000000000000000000000034
:101CB0000000000000000000000000000000000024
:101CC0000000000000000000000000000000000014
:0C1CD000AAAAAAAA000000000000000060
:04000005080000ED02
:00000001FF
