:020000040800F2
:100000006014002099010008AF0E0008D50D00080B
:10001000AD0E000855020008B111000800000000F4
:1000200000000000000000000000000001010008C6
:10003000570200080000000045010008F10F000809
:10004000B3010008B3010008B3010008B3010008C0
:10005000B3010008B3010008B3010008B3010008B0
:10006000B3010008B3010008B3010008B3010008A0
:10007000B3010008B3010008B3010008B301000890
:10008000B3010008B3010008B3010008B301000880
:10009000B3010008B3010008B3010008B301000870
:1000A000B3010008B3010008B3010008B301000860
:1000B00075100008B3010008B3010008B30100087F
:1000C000B3010008B3010008B3010008B301000840
:1000D000B3010008B3010008B3010008B301000830
:1000E000B3010008B3010008B3010008DFF80CD029
:1000F00000F09EF8004800478113000860140020BB
:10010000224B19680868B0E8F00F80F30988BFF344
:100110006F8F4FF0000080F311884EF00D0E704786
:100120000000000006480068006880F3088862B696
:1001300061B6BFF34F8FBFF36F8F00DF00BF00BF0B
:1001400008ED00E0EFF30980BFF36F8F0F4B1A68E3
:1001500020E9F00F106008B54FF0500080F31188CF
:10016000BFF34F8FBFF36F8F01F082FD4FF00000A0
:1001700080F31188BDE8084019680868B0E8F00FFE
:1001800080F30988BFF36F8F704700BF1C00002009
:10019000EFF3058070470000064880470648004797
:1001A000FEE7FEE7FEE7FEE7FEE7FEE7FEE7FEE727
:1001B000FEE7FEE773100008ED00000840EA0103C7
:1001C0009B0703D009E008C9121F08C0042AFAD20D
:1001D00003E011F8013B00F8013B521EF9D27047D1
:1001E000D2B201E000F8012B491EFBD27047002279
:1001F000F6E710B513460A4604461946FFF7F0FF26
:10020000204610BD30B50B460146002020220124B7
:1002100009E021FA02F59D4205D303FA02F5491BD4
:1002200004FA02F52844151EA2F10102F1DC30BDEA
:10023000064C074D06E0E06840F0010394E8070033
:1002400098471034AC42F6D3FFF754FFA4250008BA
:10025000C4250008FEE7704772B6FEE72DE9F84FA7
:10026000DFF8B8910024A9F1040B23460F2709F108
:10027000040AABF1040EC9E00125A5402A40AA42B8
:100280007DD1674ED1F804C0ACEB0608B44532D03E
:1002900014DCBCF1030F3AD009DCBCF1000F2AD00A
:1002A000BCF1010F1CD0BCF1020F31D11DE0BCF13B
:1002B000110F17D0BCF1120F2AD119E0B8F5881F21
:1002C00019D006DCB8F5803F15D0B8F5801F1FD1D6
:1002D00011E0B8F5001F0ED0B8F5041F18D10AE0E0
:1002E000CB6815E0CB681B1D12E0CB6808330FE02C
:1002F000CB680C330CE08B682BB1012B4FF008035B
:1003000003D0456104E0042302E0056100E000231E
:10031000FF2A01D8064601E000F104064FEA8405F1
:1003200001D9A5F12005D6F8008007FA05FC28EAD6
:100330000C0803FA05F548EA0508C6F800804D6880
:10034000ED0062D5374DAE6946F00106AE61AD698C
:1003500024F0030605F001050095334D06EB050C6E
:10036000DCF80850A607360F07FA06F825EA080554
:10037000DFF8B880404503D14FF0000817E044E0B3
:10038000DFF8AC80404502D14FF001080FE0DFF804
:10039000A480404502D14FF0020808E0DFF89880C1
:1003A000404502D14FF0030801E04FF0040808FA7D
:1003B00006F848EA0508CCF808804D68D9F80060CE
:1003C000ED024D4601D5164300E096432E604D6880
:1003D000DAF80060AD02554601D5164300E09643B9
:1003E0002E604D68DBF80060AD035D4601D5164315
:1003F00000E096432E604D68DEF80060ED03754620
:1004000001D5164300E096432E60641C0D682A4611
:10041000E5407FF431AFBDE8F88F000008040140EB
:1004200000001110001002400000014000080140CF
:10043000000C014000100140001401408068084099
:1004400000D001207047000001488068704700001C
:100450000C000020024881680278114481607047D6
:100460000C000020074810B5016841F01001016040
:10047000032000F0A7F80F2000F006F800F050F875
:10048000002010BD0020024030B50546204887B04E
:10049000C16941F00101C161C06906A900F0010014
:1004A000009001A800F036F90498B8B100F052F9B4
:1004B000400018494FF08042B0FBF1F11648491E48
:1004C0000260416040F2E7320021C0E9032181600F
:1004D000816100F017FB040003D015E000F03AF949
:1004E000E7E70D4800F03CFB04000DD11C2000F0B4
:1004F0003BF8102D07D2002229461C2000F042F8BC
:100500000648056000E0012407B0204630BD000029
:100510000010024040420F00240300201000002081
:100520000F4808B5816941F001018161816901F0DD
:1005300001010091C16941F08051C161C06900228F
:1005400000F0805000900F21901E00F01BF805482D
:10055000416821F0E06141F00071416008BD000098
:100560000010024000000140002809DB00F01F02DB
:10057000012191404009800000F1E020C0F8001105
:1005800070470000F0B40E4B1B680C46C3F3022307
:10059000C3F10705042D00D90425191D072901D22F
:1005A000002300E0DB1E012606FA05F1491E21406A
:1005B00099409E40761E16403143F0BC00F00ABEC2
:1005C0000CED00E0064900F0070208684FF6FF0353
:1005D000184040EA0220034A1043086070470000B8
:1005E0000CED00E00000FA052DE9F0470F4605008C
:1005F00061D0434E306800F00700B84209D230683D
:1006000020F0070038433060306800F00700B8423F
:1006100051D128683B4C810712D5400703D560684B
:1006200040F4E06060602878000703D5606840F41B
:10063000605060606068A96820F0F0000843606066
:100640002878C00728D06868012810D021680228BF
:1006500010D0890700292EDA616821F003010143D7
:100660006160FFF7F1FE804641F288390DE02168B4
:100670008903EFE78901EDE7FFF7E6FEA0EB08014C
:10068000494502D90320BDE8F0876068696800F039
:100690000C00B0EB810FEFD1306800F00700B842DA
:1006A0000BD9306820F0070038433060306800F024
:1006B0000700B84201D00120E5E72878400705D5BA
:1006C0006068E96820F4E06008436060287800070B
:1006D00006D56068296920F4605040EAC100606076
:1006E00000F058F86168084AC1F30311515CC84032
:1006F0000649086006480068FFF7C6FE0020C2E70A
:10070000002002400010024072250008180000205E
:10071000100000200F2202600C4A536803F003030C
:100720004360536803F0F0038360536803F4E063AD
:10073000C36052684FF4E06303EAD20202610448E6
:10074000006800F0070008607047000000100240D9
:10075000002002400448054900684968044AC1F382
:100760000221515CC8407047180000200010024070
:10077000822500080448054900684968044AC1F315
:10078000C221515CC8407047180000200010024090
:10079000822500080E4A51680E4801F00C03042B14
:1007A00011D0082B0FD10C48C1F38343C903C05C9F
:1007B0000AD55168084AC1F34041921E515C054A6E
:1007C0005043B0FBF1F070470449484370470000C4
:1007D0000010024000127A006225000800093D0066
:1007E0002DE9F84F040070D02078C04DC00749D0E3
:1007F0006868C0F38100012807D06868C0F38100F1
:10080000022809D16868C00306D52868800339D555
:1008100060680028E7D035E06068B0F5803F0BD015
:1008200010B1B0F5A02F11D0286820F480302860D6
:10083000286820F4802002E0286840F48030286096
:10084000606890B1FFF700FE06460AE0286840F4B1
:1008500080202860F0E700BFFFF7F6FD801B6428CA
:1008600073D828688003F7D50CE0FFF7EDFD064646
:1008700005E000BFFFF7E8FD801B6428F0D828687A
:100880008003F7D420789A4E80074FF001094FF08B
:10089000000839D5686810F00C0F07D06868C0F3FD
:1008A0008100022809D16868C00306D4286880073F
:1008B00014D52069012808D110E02069B0B1C6F82C
:1008C0000090FFF7C1FD074605E00AE1FFF7BCFD18
:1008D000C01B0228C4D828688007F7D5286861693A
:1008E00020F0F80040EAC10028600DE0C6F8008062
:1008F000FFF7AAFD074604E0FFF7A6FDC01B02288C
:1009000023D828688007F7D4207800072CD57948A9
:10091000A169D9B1C0F80090FFF796FD074604E041
:10092000FFF792FDC01B02280FD8686A8007F7D531
:1009300071484FF4FA510068B0FBF1F0009000BF2D
:100940000098411E0091FAD20EE080E0C0F80080CD
:10095000FFF77AFD074604E0FFF776FDC01B02288B
:1009600075D8686A8007F7D42078400760D5E869B1
:100970000027C00008D4E86940F08050E861E869C9
:10098000012700F0805000905C480168C90513D42D
:100990000168834641F480710160FFF755FD82468E
:1009A00006E000BFFFF750FDA0EB0A0064284ED818
:1009B000DBF80000C005F5D5E06801280AD008B1D1
:1009C000052813D0286A20F001002862286A20F048
:1009D000040002E0286A40F001002862E06841F269
:1009E000883B98B1FFF730FD82460BE0286A40F063
:1009F00004002862EEE700BFFFF726FDA0EB0A0126
:100A000059455AD8286A8007F6D50CE0FFF71CFD37
:100A1000824605E0FFF718FDA0EB0A0159454CD8C6
:100A2000286A8007F6D41FB1E86920F08050E86199
:100A3000E06988B36968C1F38101022944D00228C2
:100A4000C6F8608004D0FFF7FFFC044638E034E0CD
:100A5000FFF7FAFC074604E0FFF7F6FCC01B02288C
:100A60002BD828688001F7D4206AB0F5803F05D1E3
:100A70006868A16820F4003008436860D4E9080180
:100A80000843696821F4741108436860C6F86090EF
:100A9000FFF7DAFC044606E025E000BFFFF7D4FCD0
:100AA000001B022809D828688001F7D51BE000BF89
:100AB000FFF7CAFC001B022802D90320BDE8F88F0B
:100AC00028688001F4D40EE00128F7D06868226A13
:100AD00000F48031914204D1616A00F470108842C0
:100AE00001D00120EAE70020E8E700000010024002
:100AF0000000424280044242180000200070004082
:100B00007047704710B5040003D094F83D0010B151
:100B100007E0012010BD002084F83C00204600F0D2
:100B20001EF8022084F83D00211D206800F0A8FA7C
:100B3000012084F8460084F83E0084F83F0084F8E1
:100B4000400084F8410084F8420084F8430084F8AF
:100B5000440084F8450084F83D00002010BD704733
:100B600090F83D10012901D001207047022180F842
:100B70003D100168CA6842F00102CA6000680B4972
:100B8000884208D0B0F1804F05D00949884202D090
:100B90000849884204D1816801F00701062903D081
:100BA000016841F00101016000207047002C014004
:100BB000000400400008004070472DE9F041044661
:100BC0000068C66805694FF00007A90713D5B1078B
:100BD00011D5F91E01610120207720688069800706
:100BE000204602D0FFF7E8FF04E000F07EF8204640
:100BF00000F07CF82777680716D5700714D52168B0
:100C00006FF004000861022020772068806910F4EA
:100C1000407F204602D0FFF7CFFF04E000F065F8E8
:100C2000204600F063F82777280715D5300713D53D
:100C300021686FF008000861042020772068C069EF
:100C40008007204602D0FFF7B7FF04E000F04DF820
:100C5000204600F04BF82777E80616D5F00614D5A5
:100C600021686FF010000861082020772068C069B3
:100C700010F4407F204602D0FFF79EFF04E000F012
:100C800034F8204600F032F82777E80708D0F0075C
:100C900006D021686FF001000861204600F027F8B7
:100CA000280608D5300606D521686FF08000086157
:100CB0002046FFF725FF680608D5700606D521688F
:100CC0006FF040000861204600F018F8A8060AD529
:100CD000B00608D521686FF0200008612046BDE805
:100CE000F041FFF70EBFBDE8F08170477047006824
:100CF000B0F1804F01D1FFF7ADBB7047704770B5C1
:100D0000040004D094F84100002510B106E0012051
:100D100070BD84F84050204600F024F8242084F868
:100D200041002068C16821F40051C160204600F0F4
:100D3000E3F92068016921F490410161206841696B
:100D400021F02A0141612068C16841F40051C1606D
:100D50006564202084F8410084F842006563002027
:100D600070BD000030B585B0002400940194029459
:100D7000039400681449884224D11448816941F4DD
:100D800080418161816901F480410491816941F070
:100D90000401816180690E4D00F0040004904FF45D
:100DA00000700090022001900320039069462846BD
:100DB000FFF754FA2815CDE9000469462846029445
:100DC000FFF74CFA05B030BD00380140001002407A
:100DD00000080140FEE7000010B5124B92B00EACC7
:100DE0000FCB84E80F0000210EA800F0F1FA0E4CA2
:100DF0000C491C22A06010316846FFF7DFF9002182
:100E0000684600F0F8FA074920601C222C3107A838
:100E1000FFF7D4F9002107A800F0EDFA606012B0E6
:100E200010BD0000182500080000002000B585B0A6
:100E30000020019003900D48816941F020018161FB
:100E4000816901F020010491816941F0040181610F
:100E50008069694600F0040004900320009001209E
:100E600002900348FFF7FAF905B000BD00100240F8
:100E7000000801400C4810B50A4901604FF4E13107
:100E80004160002181600C22C160C0E904128161CF
:100E9000C161FFF734FF002803D0BDE81040FFF721
:100EA000DBB910BD00380140DC020020FEE7FEE7A0
:100EB00008B5164D164C02212046FFF7BFFAA0B91F
:100EC000142000F079FA02212046FFF7B7FA60B942
:100ED00010A000F06FF900226946A86801F092F8AE
:100EE00001280CD00EA000F065F902212046FFF782
:100EF000A5FA0028F9D00A2000F05EFADBE7BDF879
:100F000000100BA000F056F9EFE7000000000020F1
:100F1000000801404B455932B0B4CFC2210D0A0040
:100F2000B6C1C8A1B6D3C1D0CAA7B0DC0D0A0000B3
:100F3000B6C1C8A1B6D3C1D0B3C9B9A6A3ACB6C116
:100F4000C8A1D6B5A3BA25640D0A000008B564206F
:100F5000174D184CADF8000001212046FFF76EFA3E
:100F6000A8B9142000F028FA01212046FFF766FAFC
:100F700068B911A000F01EF900231A466946A86856
:100F800000F090FF01280CD00EA000F013F9012111
:100F90002046FFF753FA0028F9D00A2000F00CFA97
:100FA000DAE7BDF800100BA000F004F9EFE700004D
:100FB00000000020000801404B455931B0B4CFC2B9
:100FC000210D0A00D0B4C8EBB6D3C1D0CAA7B0DC9B
:100FD0000D0A0000D0B4C8EBB6D3C1D0B3C9B9A6CE
:100FE000A3ACD0B4C8EBD6B5A3BA25640D0A0000F3
:100FF00010B5502080F31188BFF34F8FBFF36F8F70
:1010000001F03CF918B104494FF08050086000200D
:1010100080F3118810BD000004ED00E030B58FB002
:1010200028216846FFF7E3F814210AA8FFF7DFF844
:101030000121080400240491CDE90010CDE9080441
:101040000294022507956846FFF7CAFB08B172B6FD
:10105000FEE70F200A90CDE90B540D9400210AA859
:101060000E94FFF7C1FA002801D072B6FEE70FB068
:1010700030BD70470148FFF7A0BD000024030020E9
:10108000F0B50268194B1A4C1A4D4FF08047984240
:1010900005D0B84203D0A04201D0A84203D122F02B
:1010A00070064A683243984205D0B84203D0A04245
:1010B00001D0A84203D122F44074CA6822434C698B
:1010C00022F08002224302608A68C2620A68826259
:1010D000984201D109690163012141610169C90790
:1010E00003D0016921F001010161F0BD002C014034
:1010F000000400400008004070B504460068016923
:10110000E26821F44051114301612169A06808435C
:10111000616908432168CA6841F20C639A4302433B
:10112000CA6020684169A26921F44071114341619C
:101130001E492068884202D1FFF71CFB01E0FFF73F
:1011400009FB00EBC00101EB001260686421800024
:10115000B2FBF0F3B3FBF1F36FF018067343B2FB8D
:10116000F0F5B2FBF0F605EB8305322303EB051532
:10117000B5FBF1F5B6FBF1F605F0F00505EB06154C
:10118000B2FBF0F6B2FBF0F0B0FBF1F06FF018023A
:10119000504306EB800003EB0010B0FBF1F0216838
:1011A00000F00F002844886070BD00000038014046
:1011B000FEE700000FB4054B10B503A9044A0298DE
:1011C00000F028F810BC5DF814FB0000691300085B
:1011D000840000200907090E002804DB00F1E0204C
:1011E00080F80014704700F00F0000F1E02080F854
:1011F000141D704702E008C8121F08C1002AFAD166
:1012000070477047002001E001C1121F002AFBD186
:10121000704700002DE9FF4F89B09B46044600252A
:1012200006E025280BD05A460B999047641C6D1C8C
:1012300020780028F5D10DB02846BDE8F08F0027B2
:10124000B8460122474900E0074314F8013F203B1C
:1012500002FA03F00842F7D120782E2819D114F8A9
:10126000010F47F004072A280ED06FF02F022078D4
:10127000A0F1300109290CD808EB880102EB4101EB
:1012800000EB0108641CF2E70A98641C50F8048B18
:101290000A9020780028CED0642808D0692806D08B
:1012A00075281ED05A460B9990476D1C58E00A9934
:1012B0004FF00A0901C90A91002802DA40422D21A3
:1012C00002E0390504D52B218DF82010012103E01F
:1012D000F90704D02021F7E78A4608AE0DE0002187
:1012E000FAE70A994FF00A0901C90A91F7E7494656
:1012F000FEF788FF303106F8011D0028F7D1ADEB6D
:10130000060000F12009780701D44FF00108C84514
:1013100002DDA8EB090000E000208046002706E07F
:1013200008A85A46C05D0B9990476D1C7F1C574515
:10133000F6DB04E030205A460B9990476D1CB8F15B
:101340000001A8F10108F5DC05E016F8010B5A468A
:101350000B9990476D1CB9F10001A9F10109F4DC6A
:10136000641C65E70928010004490A685206FCD597
:10137000024AC1B2121D11607047000000380140DE
:10138000FFF770F8FFF74AFEFFF750FDFFF772FD19
:1013900003A0FFF70FFFFFF71FFD00F014F8FEE7B3
:1013A00068656C6C6F2077616E67000001460020F5
:1013B000842900D0C81C704710B500B9012000F086
:1013C000CDFB002010BD10B500F014FC002010BDB6
:1013D00038B5D0E9011204683AB1C3682BB10020D6
:1013E0000090204600F0E7FC38BD2046BDE83840BC
:1013F000002200F0BFBC7FB50D4604464169B0F93C
:10140000080081B1A16971B1FFF7D0FFD4E90512DD
:101410008DE80700D4E900102B46226900F0F5FEA4
:10142000039004B070BDFFF7C1FF03A9CDE900012F
:10143000208A2B4682B2D4E9001000F0B9FE0128C0
:1014400001D00020EDE70398EBE700002DE9F04123
:10145000184C0F460546E6682068001D00F0B6FAF5
:1014600038B9206890F82C10012088402169814308
:101470002161681C07D137B12168BDE8F0410E48F1
:10148000091D00F0E7BA20683544B542456021687F
:1014900005D2A06BBDE8F041091D00F0C3BA606B36
:1014A000091D00F0BFFAA06A854200D2A562BDE81E
:1014B000F08100001C000020480400202DE9F041CC
:1014C000054600F0D3FA2E4CA068401CA0602068AE
:1014D0002C4F10B1606940B32DE02560A068012851
:1014E00029D1002606EB860007EB800000F08CFA7D
:1014F000761C072EF6D323488C3000F085FA21485D
:10150000A03000F081FA1F48B43000F07DFA1D4889
:10151000C83000F079FA1B48DC3000F075FA194841
:101520008C3060631430A06305E02068E96AC06A0B
:10153000884200D82560606A401C6062E96A012028
:10154000226988401043206101EB810007EB800095
:10155000291D00F07FFA00F0A9FA606900280CD07C
:101560002068E96AC06A884207D207494FF0805074
:101570000860BFF34F8FBFF36F8FBDE8F0810000AD
:101580001C0000206C03002004ED00E030B4026C6D
:101590000B46002A0BD0C1681144C1608468A14287
:1015A00001D30168C16030BC1846FEF707BE30BCED
:1015B00070472DE9F041856B174604460026026C02
:1015C00082B1C7B1E068FEF7F9FDE168206C091A45
:1015D000E1602268914202D2A168081AE060022FFD
:1015E00016D017E02068A8B9A06800F0ADFE064646
:1015F0000020A0600EE06068FEF7E0FD216C6068EE
:1016000008446060A168884204D32068606001E0FB
:1016100005B16D1E6D1CA5633046BDE8F08110B5A7
:10162000044690F8510058B101280CD002280FD080
:10163000502080F31188BFF34F8FBFF36F8FFEE709
:10164000206B00F047FA2046BDE8104000F042BA97
:1016500010BD000010484FF44061420706D0C01D85
:101660000D4920F00700411AC1F540610B4A0023E3
:101670000144C2E900030839183A21F0070111605A
:101680004B600B600B1AC0E9001393604FF00040F1
:1016900053605061704700005C040020700000201F
:1016A000144E154CA6F1C8074FF08058DFF84C9047
:1016B00012E000BF00F0DAF9F068C568281D00F0FC
:1016C00085F9A068401EA0606068401E606000F060
:1016D000EDF92846FFF7A3FF60680028EAD13868D3
:1016E0000128F9D9C9F80080BFF34F8FBFF36F8F7E
:1016F000F2E70000340400201C00002004ED00E0AC
:101700000346009829B10260C0E90F31012100F0C1
:1017100085BB0060F8E72DE9F0479A46DDE90984CA
:1017200081466FF00303206B03EB82021044089E96
:1017300020F00707780707D0502080F31188BFF307
:101740004F8FBFF36F8FFEE7002561B10020231894
:101750000A5C83F834200A5C12B1401C1028F6D3CE
:1017600084F8435001E084F83450072E00D3062655
:10177000E662C4E91165201D00F051F904F118007A
:1017800000F04DF92461C6F107006462A061E564D0
:1017900084F8505052464946384600F005F920601A
:1017A000B8F1000F01D0C8F80040BDE8F087000094
:1017B00030B5114900E011460A688242FBD34B68FC
:1017C0005C18844203D14068184448600846436866
:1017D0001C18944209D1084C183C2468A24209D034
:1017E00052681A4442600A6812680260814200D05E
:1017F000086030BD0460F9E77000002010B50446B1
:1018000000F034F9A06B28B15FF0000400F04EF94D
:10181000204610BD0124F9E70648416B096829B14B
:10182000416BC968C9684968816270474FF0FF31F0
:10183000FAE700001C00002008484068401C4FF0F8
:10184000500080F3118804D0BFF34F8FBFF36F8F28
:10185000FEE7BFF34F8FBFF36F8FFEE778000020E6
:101860002DE9F041044600F001F994F9455004F1E6
:10187000240609E0606A48B1304600F0B1FD08B1C5
:1018800000F09AF96D1E6DB2002DF3DC4FF0FF36BB
:1018900084F8456000F00AF900F0E8F894F9445043
:1018A00004F1100709E0206948B1384600F098FDBE
:1018B00008B100F081F96D1E6DB2002DF3DC84F8E3
:1018C0004460BDE8F04100F0F1B800002DE9F041BE
:1018D0000546002700F0C4F9324E306808B9FFF71A
:1018E000B9FE706905424ED1C5B3083568070ED000
:1018F00005F00700C0F108000544680707D0502034
:1019000080F31188BFF34F8FBFF36F8FFEE72DB3C6
:101910007068854237D82348183001460C6801E0CA
:1019200020460C466168A94202D221680029F7D1FD
:1019300031688C4227D007682168016060680837E9
:10194000411B10290FD96019420708D0502080F39D
:101950001188BFF34F8FBFF36F8FFEE713E0416035
:101960006560FFF725FF61687068401A7060B268B3
:10197000904200D2B060706901430020C4E90001C8
:10198000F068401CF06000F065FD780707D050203B
:1019900080F31188BFF34F8FBFF36F8FFEE7384698
:1019A000BDE8F0815800002010B5031F4FF080748F
:1019B0001C601B1F21F001011960191F024B0B60F5
:1019C000143940380A6010BD39180008D0E90132D6
:1019D00001699A60D0E901235A604A68824201D1C4
:1019E00082684A60002202610868401E0860086838
:1019F00070470000034B036003F15400086080202F
:101A0000106070478800002000F108014FF0FF329D
:101A1000C0E90112C160016100210160704700212D
:101A20000161704730B50B685A1C02D000F1080202
:101A300002E0026904E02246546825689D42FAD912
:101A400053684B6099608A60516008610168491C65
:101A5000016030BD42684A6093688B60936859604A
:101A6000916008610168491C01607047502080F353
:101A70001188BFF34F8FBFF36F8F0A494868401C2E
:101A8000486001280CD10848006810F0FF0F07D00B
:101A9000502080F31188BFF34F8FBFF36F8FFEE7A5
:101AA000704700007800002004ED00E00849486815
:101AB00028B1401E486001D180F311887047502042
:101AC00080F31188BFF34F8FBFF36F8FFEE70000E5
:101AD0007800002070B500282AD0164DA0F1080427
:101AE00060686969084207D1502080F31188BFF30C
:101AF0004F8FBFF36F8FFEE722683AB1502080F31B
:101B00001188BFF34F8FBFF36F8FFEE7884360608C
:101B100000F0A6F860686968084468602046FFF72E
:101B200047FE2869401C2861BDE8704000F092BC67
:101B300070BD0000580000204FF0E020002101613E
:101B4000816105494FF47A720968B1FBF2F1491ECF
:101B500041610721016170471800002010B50200A3
:101B600014D00F48006B38B1502080F31188BFF3B8
:101B70004F8FBFF36F8FFEE700F072F80021104621
:101B8000FFF764FC00F066FC002807D105494FF020
:101B900080500860BFF34F8FBFF36F8F10BD000000
:101BA0001C00002004ED00E002490A6A0260C968D6
:101BB000416070471C00002001490120C861704746
:101BC0001C00002010B50C4650B1094909681831B5
:101BD000FFF728FF2046BDE810400121FFF736BC83
:101BE000502080F31188BFF34F8FBFF36F8FFEE754
:101BF0001C00002010B586B00024039405AA04A997
:101C000003A80494FFF7F6FEDDE903010094CDE993
:101C1000011000230EA11048059A00F0F6FA0F49B2
:101C20000028C86211D0502080F31188BFF34F8F75
:101C3000BFF36F8F4FF0FF30886201204861CC60A6
:101C400006B0BDE8104000F041B806B010BD00007D
:101C500049444C4500000000A11600081C0000206B
:101C60000248016B491C0163704700001C00002002
:101C70001448016B11B10121C16170470021C1619C
:101C80000169B1FA81F1C1F11F0101EB81020E4935
:101C900051F822306BB101EB820101F108034A686F
:101CA00052684A609A4201D152684A60D168016024
:101CB0007047502080F31188BFF34F8FBFF36F8FB1
:101CC000FEE700001C0000206C0300201CB5264924
:101CD00008780190FF20087008788DF800009DF8C2
:101CE00000009DF8002000F0F000904207D0502046
:101CF00080F31188BFF34F8FBFF36F8FFEE79DF81E
:101D000000001A4C00F0500020700720A06005E091
:101D10009DF8002052008DF80020401E9DF8002004
:101D20001206F5D4A060032807D0502080F3118854
:101D3000BFF34F8FBFF36F8FFEE74FF44070A0608B
:101D4000019808700A48016841F470010160016857
:101D500041F070410160FFF7EFFE00206060FEF788
:101D6000E1F900201CBD000000E400E07800002044
:101D700020ED00E0F8B517460E46050013D005FB30
:101D800006F04830FFF7A2FD04000AD0002084F8D6
:101D9000460004F148023B46314628460094FFF7CE
:101DA000AFFC2046F8BD502080F31188BFF34F8F61
:101DB000BFF36F8FFEE738B5049D18B153B1CAB1B8
:101DC00081B120E0502080F31188BFF34F8FBFF323
:101DD0006F8FFEE7502080F31188BFF34F8FBFF362
:101DE0006F8FFEE7502080F31188BFF34F8FBFF352
:101DF0006F8FFEE739B1502080F31188BFF34F8F0A
:101E0000BFF36F8FFEE748241C46012384F8463059
:101E10002B460094FFF774FC204638BD70B50D4684
:101E2000040025D0FFF722FED4E90F20216802FB31
:101E30000011A1600021A163216861600A46D4E914
:101E40000F01401E00FB0121E16021464FF0FF30F1
:101E500001F8440F487004F110008DB1FFF7D4FD74
:101E600004F12400FFF7D0FDFFF720FE012070BD34
:101E7000502080F31188BFF34F8FBFF36F8FFEE7C1
:101E800021690029F0D000F0ABFA0028ECD0044919
:101E90004FF080500860BFF34F8FBFF36F8FE3E7C1
:101EA00004ED00E02DE9FF4782B01D468A464FF061
:101EB0000008040003D0BAF1000F08D011E0502050
:101EC00080F31188BFF34F8FBFF36F8FFEE7206C55
:101ED00038B1502080F31188BFF34F8FBFF36F8F5D
:101EE000FEE7022D0AD1E06B012807D0502080F3D5
:101EF0001188BFF34F8FBFF36F8FFEE700F0B0F98B
:101F00003F4F4FF000094FF0805648B9049838B160
:101F1000502080F31188BFF34F8FBFF36F8FFEE720
:101F2000FFF7A4FDA06BE16B884207D3022D05D01B
:101F30000498D0B1B8F1000F1AD01EE02A465146DD
:101F40002046FFF736FB616A19B104F1240000F066
:101F500047FA20B13E60BFF34F8FBFF36F8FFFF79B
:101F6000A5FD012006B0BDE8F087FFF79FFD22E048
:101F70006846FFF719FE4FF00108FFF797FDFFF7DE
:101F80006FFEFFF773FD94F94400401C01D184F803
:101F9000449094F94500401C01D184F84590FFF726
:101FA00085FD04A9684600F0C9F830B12046FFF766
:101FB00057FC00F04FFA0020D4E7FFF757FDA06B65
:101FC000E16B884213D1FFF771FD04F11000049911
:101FD000FFF7F8FD2046FFF743FC00F03BFA00282E
:101FE0009ED13E60BFF34F8FBFF36F8F98E7FFF72F
:101FF0005DFD2046FFF734FC00F02CFA90E700006E
:1020000004ED00E02DE9F747002683B08A4604007E
:1020100003D0BAF1000F08D011E0502080F31188EE
:10202000BFF34F8FBFF36F8FFEE7206C38B15020A6
:1020300080F31188BFF34F8FBFF36F8FFEE700F07F
:102040000FF9DFF8F4804FF000094FF0805748B9DE
:10205000059838B1502080F31188BFF34F8FBFF33C
:102060006F8FFEE7FFF702FDA56BC5B15146204615
:10207000FFF78CFA6D1EA563206950B104F11000C2
:1020800000F0AEF928B1C8F80070BFF34F8FBFF36E
:102090006F8FFFF70BFD012006B0BDE8F0870598B4
:1020A00008B11EB106E0FFF701FD27E06846FFF723
:1020B0007BFD0126FFF7FAFCFFF7D2FDFFF7D6FC08
:1020C00094F94400401C01D184F8449094F94500EF
:1020D000401C01D184F84590FFF7E8FC05A968464B
:1020E00000F02CF8002820460AD0FFF7B9FB00F0DA
:1020F000B1F92046FFF782FB0028B3D00020CBE7E0
:10210000FFF77CFB90B104F124000599FFF75AFD1D
:102110002046FFF7A5FB00F09DF90028A2D1C8F8E2
:102120000070BFF34F8FBFF36F8F9BE72046FFF721
:1021300097FB00F08FF995E704ED00E02DE9F04101
:102140000C46050011D0C4B1FFF790FC174BDA68BC
:102150006E682068911B471C17D02F681B6A9F422E
:1021600019D0964217D8012410E0502080F311882E
:10217000BFF34F8FBFF36F8FFEE7502080F31188BE
:10218000BFF34F8FBFF36F8FFEE70024FFF78EFC86
:102190002046BDE8F081884205D9401A20602846D3
:1021A000FFF702FDF1E700202060DCE71C000020C3
:1021B0002DE9FF5F8346DDE90E87994616468A467C
:1021C0009000FFF783FB05001CD05420FFF77EFB37
:1021D000040014D00020256384F85100CDE90240AA
:1021E000CDE900874B46324651465846FFF793FAF1
:1021F0002046FFF763F9012004B0BDE8F09F2846B0
:10220000FFF768FC4FF0FF30F6E7F0B585B0DDE989
:102210000B640A9DA6B1DCB1542700972663022601
:1022200084F85160002604AFCDE90246CDE900579D
:10223000FFF771FA2046FFF741F9049805B0F0BDA9
:10224000502080F31188BFF34F8FBFF36F8FFEE7ED
:10225000502080F31188BFF34F8FBFF36F8FFEE7DD
:102260000548416919B1006B18B100207047012081
:1022700070470220704700001C0000202DE9F0414B
:102280002F4C0026206B28B1A069401CA06130466D
:10229000BDE8F081E5686D1CE56013D1606B0068F6
:1022A00038B1502080F31188BFF34F8FBFF36F8F89
:1022B000FEE7606BA16B6163A063206A401C206233
:1022C000FFF7AAFAA06ADFF87C80854209D3606B29
:1022D0000068A0B1606BC068C7687868854211D299
:1022E000A0622068C06A00EB800158F82100012834
:1022F00000D90126E0690028C9D00126C7E74FF0C0
:10230000FF30EDE7381DFFF761FBB86A18B107F140
:102310001800FFF75BFBF96A01202269884010432F
:10232000206101EB810108EB8100391DFFF792FB71
:10233000F86A2168C96A8842C9D30126C7E7000044
:102340001C0000206C03002070B504004FF0000159
:1023500040D0214D2868844207D0502080F3118856
:10236000BFF34F8FBFF36F8FFEE7A06C38B1401EF5
:10237000A064636CE26A9A422CD040B12AE05020FB
:1023800080F31188BFF34F8FBFF36F8FFEE7201DDF
:10239000FFF71CFB114A012150B9E06A00EB8003F2
:1023A00052F8233023B92B6901FA00F083432B61E3
:1023B000606CE062C0F10700A061E06A2B698140B7
:1023C0001943296100EB800002EB8000211DFFF71B
:1023D00041FB0121084670BD1C0000206C03002059
:1023E0002DE9F041C068C468ACB104F1180007469B
:1023F000FFF7ECFA154D286B0126A0B139461448B9
:10240000FFF728FBE06A2968C96A88421CD90120C5
:10241000EE61BDE8F081502080F31188BFF34F8F4B
:10242000BFF36F8FFEE7201DFFF7D0FAE16A2A693C
:1024300006FA01F01043286101EB81000449B43928
:1024400001EB8000211DDBE70020E2E71C000020FB
:10245000200400202DE9F0472C4D00242746286B4E
:1024600038B1FFF703FB286B401E2863286B40B18F
:1024700046E0502080F31188BFF34F8FBFF36F8F7A
:10248000FEE7A968224E0120D1B3A6F1B409804627
:102490003068E8B1F068C46804F11800FFF796FAF4
:1024A000201DFFF793FAE06A2A6908FA00F1114348
:1024B000296100EB800109EB8100211DFFF7CAFAB9
:1024C000E06A2968C96A8842E2D3C5F81C80DFE760
:1024D0000CB1FFF7A1F9AC6944B14646FFF7CEFE57
:1024E00000B1EE61641EF9D10020A861E86938B13D
:1024F0000849012738070860BFF34F8FBFF36F8F7C
:10250000FFF7D4FA3846BDE8F08700001C00002031
:102510002004002004ED00E0100000000200000094
:1025200000000000000000008C2500084D0F00088E
:10253000000000000000000080000000000000001B
:102540000000000098250008B10E000800000000FF
:1025500000000000800000000000000000000000FB
:10256000010202030405060708090A0B0C0D0E0FF1
:102570001010000000000000000001020304060724
:102580000809000000000102030400007461736B7D
:1025900053656E64000000007461736B526563657F
:1025A00069766500C425000800000020880000004E
:1025B000F41100084C26000888000020D813000001
:1025C00004120008000000000000000000000000ED
:1025D00001000000100000000000000000127A005E
:1025E00000000000000000000000000000000000EB
:1025F00000000000000000000000000000000000DB
:1026000000000000000000000000000000000000CA
:1026100000000000000000000000000000000000BA
:1026200000000000000000000000000000000000AA
:10263000000000000000000000000000000000009A
:0C264000AAAAAAAA0000000000000000E6
:04000005080000ED02
:00000001FF
